:020000040000FA
:100000000A128A110C280234FE00030EF4000A08BA
:10001000F5000A168A15AA2A0A128A110F288317D0
:10002000DC30FD001330FE009030FF009030840083
:100030000A168A11EF220A128A113830FD001B308D
:10004000FE00F430FF00103084000A168A11EF22FF
:100050000A128A118313EC30FD001A30FE001130B1
:10006000FF00E23084000A168A11EF220A128A1178
:100070006E30FD001A30FE001B30FF00643084003B
:100080000A168A11EF220A128A110A128A11032013
:100090000A128A11FA0083173830840056300A1683
:1000A0008A15E3210A128A1183160313EC01ED016C
:1000B00083134430840064300A168A15E3210A123F
:1000C0008A11F601F701F801F90183010A128A1178
:1000D0003E2CFF0000308A007F0882076E280A1637
:1000E0008A15B7290A168A15EB290A168A158D2E44
:1000F0000A168A11292C0A168A15032F0A168A1540
:10010000CD290A168A152A2D0A168A157C2F0A125D
:100110008A11872E0A168A15EC2D0A168A117C2C54
:100120000A168A156E2A83120313AE01B101B001BB
:100130006C08A9002908AF00A30100300A168A152F
:10014000BB250A128A11831203132E080319A9284A
:10015000AA28B72820300A168A158A250A128A1179
:10016000013083120313A9002908B0077D2A2F0844
:10017000523E840083130008A9002908B200013010
:10018000A9002908AF073208031DC728C828CB28B3
:10019000AE01AE0A7D2A653032020318D028D1287C
:1001A0005E293208A9002908B10064303102031C1D
:1001B000DA28DB280F2931300A168A158A250A1217
:1001C0008A11013083120313A9002908B007643093
:1001D000A0000030A1003108A900AA012908A2004E
:1001E0002A08A3000A168A112A250A128A118312E4
:1001F00003132008AB002B08B1000A3031020318AA
:10020000022903290F2930300A168A158A250A1275
:100210008A11013083120313A9002908B0070A309C
:100220003102031C142915294A290A30A000003084
:10023000A1003108A900AA012908A2002A08A300E8
:100240000A168A11ED250A128A1183120313200857
:10025000303E0A168A158A250A128A110130831245
:100260000313A9002908B0070A30A0000030A1003C
:100270003108A900AA012908A2002A08A3000A1629
:100280008A112A250A128A11831203132008AB004F
:100290002B08B1003108303E0A168A158A250A1249
:1002A0008A11013083120313A9002908B0072530F1
:1002B0000A168A158A250A128A11B0286530320278
:1002C000031C63296429FF29DD30320203186929E0
:1002D0006A29FF2932300A168A1156260A128A1113
:1002E000831203133208A9002908B10064303102D7
:1002F000031C7B297C29B02931300A168A158A25EE
:100300000A128A11013083120313A9002908B007C9
:100310006430A0000030A1003108A900AA0129081A
:10032000A2002A08A3000A168A112A250A128A1195
:10033000831203132008AB002B08B1000A303102EE
:100340000318A329A429B02930300A168A158A2552
:100350000A128A11013083120313A9002908B00779
:100360000A303102031CB529B629EB290A30A00056
:100370000030A1003108A900AA012908A2002A081A
:10038000A3000A168A11ED250A128A11831203139B
:100390002008303E0A168A158A250A128A11013071
:1003A00083120313A9002908B0070A30A000003007
:1003B000A1003108A900AA012908A2002A08A30067
:1003C0000A168A112A250A128A1183120313200899
:1003D000AB002B08B1003108303E0A168A158A2579
:1003E0000A128A11013083120313A9002908B007E9
:1003F00073300A168A158A250A128A11B028DD3050
:100400003202031C042A052A572AFE30320203183E
:100410000A2A0B2A572A32300A168A1156260A123D
:100420008A11332A3208DF390A168A158A250A12F8
:100430008A11013083120313A9002908B007B21AE8
:10044000222A232A282A2B30AC000030AD002C2A87
:100450002D30AC000030AD002C080A168A158A2514
:100460000A128A11B028831203133208A900AA01C4
:100470002A08003A03193D2A7D2A2908413A03191E
:10048000122A033A0319122A013A0319122A073AC7
:100490000319122A253A0319122A033A0319122AB8
:1004A000013A0319122A073A0319122A7D2AFE304B
:1004B0003206031D5C2A5D2A7D2A32300A168A1113
:1004C00056260A128A11831203133208A90029083A
:1004D000B1003108303E0A168A158A250A128A119F
:1004E000013083120313A9002908B00725300A162A
:1004F0008A158A250A128A11B02815303002031C89
:10050000822A832AA32808004F08A000200883120B
:100510000313A30002300A168A15BB250A128A119A
:100520008316031352088400831300080A168A15E1
:100530008A250A128A11013083160313A0002008AD
:10054000CF07323083120313A0000030A1000A1637
:100550008A15C7220A128A11013083160313A000DC
:100560002008D2075208840083130008031DB92A0B
:10057000BA2A842A003083120313A3000030A20099
:100580000530A100DC30A0000A128A11F0270A12FF
:100590008A11023083160313A0002008E000DE2A2F
:1005A0000A168A1546220A128A1183120313230897
:1005B000220421042004031DDE2AE12A0A128A15DE
:1005C000E52F083083160313A0002008E000DE2A80
:1005D0000A168A15BC210A128A11003083120313ED
:1005E000A8009030A9008316031363080A128A1129
:1005F00069200A128A11003083120313A30000300D
:10060000A2000330A100E830A0000A128A11F027EE
:100610000A128A11093083160313A0002008E00093
:10062000DE2A0A168A1546220A128A118312031339
:100630002308220421042004031D1F2B202BDE2A63
:10064000473083160313A0002008E000DE2A0A16B4
:100650008A1563230A128A1183160313A000200847
:10066000E100392B033083160313A0002008E000BB
:10067000DE2A6108A000A1012108003A0319412BDC
:10068000DE2A2008313A0319322BDE2A66080A12C4
:100690008A1169200A128A1183120313A801A90181
:1006A000ED30AA009130AB008316031364080A12E0
:1006B0008A1169200A128A1183120313A801A80A59
:1006C000A901C330AA009130AB008316031364085C
:1006D0000A128A1169200A128A110630831603133E
:1006E000A0002008E000DE2A0330A00020088312CA
:1006F0000313A800A901D830AA009130AB008316DB
:10070000031364080A128A1169200A128A1104303C
:1007100083160313A000200883120313A3000330E1
:100720000A168A15BB250A128A1141300A168A1543
:10073000CD240A128A11003A031D9F2BA02BA72B50
:100740002D3083160313BB000030BC00AD2B2B30C3
:1007500083160313BB000030BC003B080A168A1541
:100760008A250A128A11083083160313A000200874
:1007700083120313A30003300A168A15BB250A123D
:100780008A1142300A168A15CD240A128A11003ABB
:10079000031DCB2BCC2BD32B2D3083160313BD0085
:1007A0000030BE00D92B2B3083160313BD00003060
:1007B000BE003D080A168A158A250A128A110C30D5
:1007C00083160313A000200883120313A300033031
:1007D0000A168A15BB250A128A1143300A168A1591
:1007E000CD240A128A11003A031DF72BF82BFF2B98
:1007F0002D3083160313BF000030C000052C2B30B2
:1008000083160313BF000030C0003F080A168A1584
:100810008A250A128A11103083160313A0002008BB
:1008200083120313A30003300A168A15BB250A128C
:100830008A1144300A168A15CD240A128A11003A08
:10084000031D232C242C2B2C2D3083160313C100C5
:100850000030C200312C2B3083160313C10000304E
:10086000C20041080A168A158A250A128A11073021
:1008700083160313A0002008E000DE2A0A168A155A
:100880002A250A128A110A168A15DB210A128A11F0
:100890000A168A155D220A128A1101308312031387
:1008A000B1003130B0002D30AF000030AE000A167C
:1008B0008A151C240A128A11003083120313A8001F
:1008C000A9000A168A1521230A128A110030831200
:1008D0000313BB000130BA00C230B9000030B800C9
:1008E0008316031752080A128A1169200A128A1104
:1008F00083120313A401A40A8316031755080A12CE
:100900008A1169200A128A1183160313E101E0019A
:10091000CD01B801D001CE01CE30A0002008831255
:100920000313A000A101A10AD0300A168A15562689
:100930000A128A11FF3083160313A0002008D10089
:10094000B9010230A0002008BA00DE01DF01DC019D
:10095000DD01DB010A128A157A2FD301043053021C
:10096000031CB32CB42CB52CEE2CD401143054023F
:10097000031CBB2CBC2CBD2CE92C5308A000200868
:1009800083120313A800831603135408A10021083F
:1009900083120313A900E930AA009230AB0083163A
:1009A000031364080A128A1169200A128A110A3094
:1009B00083120313A0000030A1000A168A15C72273
:1009C0000A128A11013083160313A0002008D407ED
:1009D000B62C0130A0002008D307AE2CD50104307E
:1009E0005502031CF42CF52CF62C2F2DD6011430B7
:1009F0005602031CFC2CFD2CFE2C2A2D5508A000B1
:100A0000200883120313A800831603135608A100BD
:100A1000210883120313A9005830AA009130AB00BB
:100A20008316031364080A128A1169200A128A11B4
:100A30000A3083120313A0000030A1000A168A15A1
:100A4000C7220A128A11013083160313A00020085E
:100A5000D607F72C0130A0002008D507EF2CE001C5
:100A6000E00A0A128A15E52F83120313A801A80AC7
:100A7000A9018430AA009130AB00831603136408E7
:100A80000A128A1169200A128A11A4308400AE3039
:100A900083160313A0000408A1001430A20020084C
:100AA000840083170008A300A00A21088400831390
:100AB00023088000A10AA20B4F2DCF01A430A00073
:100AC0002008D2000A128A11B22A83120313C2002C
:100AD00039080A168A1593220A128A1183120313FF
:100AE000BA003A08C30043080319772D782DBE2DAC
:100AF0006530430203187D2D7E2DBE2D4308BA00BC
:100B0000BB013A08A9003B08AA000A168A158423EB
:100B10000A128A11033A031D8E2D8F2D932D013059
:100B200083120313C20283120313AD014208BA00F9
:100B30003A08AE004308BB00BC013B08AF003C08CC
:100B4000B0004308BD00BE013D08A9003E08AA0050
:100B50000A168A1584230A128A1183120313BF000E
:100B60003F08B1000A128A1187260A128A1125301D
:100B70000A168A158A250A128A11862E65304302C2
:100B8000031CC32DC42D122EDD3043020318C92DC2
:100B9000CA2D122E43300A168A1156260A128A11BD
:100BA000831203134308BA00BB013A08A9003B08AB
:100BB000AA000A168A1584230A128A11033A031D11
:100BC000E22DE32DE72D013083120313C2028312BD
:100BD0000313AD014208BA003A08AE004308BB0057
:100BE000BC013B08AF003C08B0004308BD00BE019B
:100BF0003D08A9003E08AA000A168A1584230A1295
:100C00008A1183120313BF003F08B1000A128A1130
:100C100087260A128A1173300A168A158A250A1243
:100C20008A11862EDD304302031C172E182E4F2EFC
:100C3000FE30430203181D2E1E2E4F2E43300A167F
:100C40008A1156260A128A11831203134208BA0027
:100C50003A08A30000300A168A15BB250A128A1129
:100C6000831203134308DF390A168A158A250A12EC
:100C70008A1183120313C31A3E2E3F2E442E2B30AB
:100C8000C0000030C100482E2D30C0000030C1002F
:100C900040080A168A158A250A128A11862EFE3005
:100CA0004306031D542E552E862E43300A168A11F4
:100CB00056260A128A1183120313AD014208BA00A4
:100CC0003A08AE004308BB00BC013B08AF003C083B
:100CD000B0004308BD00BE013D08A9003E08AA00BF
:100CE0000A168A1584230A128A1183120313BF007D
:100CF0003F08B1000A128A1187260A128A1125308C
:100D00000A168A158A250A128A11862E080083126D
:100D10000313B01B8C2E8E2E01308F2E0030B200AC
:100D20003208B60036080319962E972E9C2EAF096E
:100D3000B009AF0A0319B00A2E08B2003208A300A6
:100D40002D080A168A15BB250A128A111030831243
:100D50000313B7002730B8000530B2003208B500E1
:100D6000DD2E831203133808A1003708A0003008D5
:100D7000A3002F08A2000A168A11ED250A128A1173
:100D80008312031320082104031DC72EC82EF52E3D
:100D90000130B5020A30A0000030A1003808A300DD
:100DA0003708A2000A168A11ED250A128A11831249
:100DB00003132108B8002008B7003808803AFF0064
:100DC00080307F02031DE62E013037020318E92E22
:100DD000EA2EB12EF52E20300A168A158A250A121F
:100DE0008A11013083120313B102831203133508F1
:100DF0003607B200B301B30D3308803AB400803037
:100E00003402031D052F310832020318082F092F61
:100E1000112F02308312031331020318102F112FE8
:100E2000EB2E8312031336080319172F182F1E2FCA
:100E30002D300A168A158A250A128A118312031385
:100E40003808A1003708A0003008A3002F08A2002E
:100E50000A168A11ED250A128A118312031320083B
:100E6000303E0A168A158A250A128A118312031344
:100E70003808A1003708A0003008A3002F08A200FE
:100E80000A168A112A250A128A11831203132108CD
:100E9000B0002008AF000A30A0000030A1003808E0
:100EA000A3003708A2000A168A11ED250A128A113A
:100EB000831203132108B8002008B7003808803ACD
:100EC000FF0080307F02031D672F013037020318B7
:100ED0006A2F6B2F1E2F080083120313B0016D08B9
:100EE000FF3EAD002D08B100023031020318792F0A
:100EF0007A2F7B2FEF2F3108523E84008313000896
:100F0000AD002D08B200653032020318882F892FFA
:100F10009B2F3208AD00AE012D08A9002E08AA00B3
:100F20000A168A1584230A128A11013E83120313BA
:100F3000AF002F08B00765303202031CA02FA12F8D
:100F4000B92FDD3032020318A62FA72FB92F320890
:100F50009C3EA900FF3003180030AA000A168A152B
:100F600084230A128A11013E83120313AD002D0857
:100F7000B007DD303202031CBE2FBF2FC92FFE3059
:100F800032020318C42FC52FC92F0230AD002D081F
:100F9000B007FE303206031DCE2FCF2FE12F3208CF
:100FA000AD00AE012D08A9002E08AA000A168A1568
:100FB00084230A128A11013E83120313AF002F0803
:100FC000B00715303002031CE62FE72FE82FEF2F74
:100FD0003108AD002D08EC000130B102742F08007B
:100FE000831203132308C7002208C6002108C50086
:100FF0002008C40010140800831203136D080800B1
:1010000083120313B40012306D0203180828092854
:101010002A28340803190D280E282A283430A00065
:101020000030A10074300A168A1153270A128A155B
:10103000831203133408B3006D08523E8400330852
:10104000831380000130B3003308ED076D08523E72
:10105000840080010A128A116C270A128A1508007E
:101060000A168A1563230A128A1583160313A00031
:101070002008E1000C2961080A168A151F260A12A9
:101080008A15043083160313A0002008831203136B
:10109000A30003300A168A15BB250A128A154130AF
:1010A0000A168A15CD240A128A15003A031D5928FA
:1010B0005A2861282D3083160313C3000030C40062
:1010C00067282B3083160313C3000030C400430885
:1010D0000A168A158A250A128A15E52F61080A164A
:1010E0008A151F260A128A15083083160313A000DA
:1010F000200883120313A30003300A168A15BB25A8
:101100000A128A1542300A168A15CD240A128A1547
:10111000003A031D8C288D2894282D308316031344
:10112000C5000030C6009A282B3083160313C50073
:101130000030C60045080A168A158A250A128A1543
:10114000E52F61080A168A151F260A128A150C3027
:1011500083160313A000200883120313A300033097
:101160000A168A15BB250A128A1543300A168A15F3
:10117000CD240A128A15003A031DBF28C028C728AB
:101180002D3083160313C7000030C800CD282B3044
:1011900083160313C7000030C80047080A168A15D3
:1011A0008A250A128A15E52F61080A168A151F2654
:1011B0000A128A15103083160313A0002008831228
:1011C0000313A30003300A168A15BB250A128A15D9
:1011D00044300A168A15CD240A128A15003A031DD6
:1011E000F228F328FA282D3083160313C9000030A3
:1011F000CA0000292B3083160313C9000030CA002F
:1012000049080A168A158A250A128A15E52F0A3016
:10121000A0002008E000E52F6108A000A10121083E
:10122000003A03191429E52F2008233A0319072946
:10123000093A0319F12F6B3A03193B28033A0319B2
:101240006E28013A0319A128073A0319D428E52F7B
:101250000A168A11D0240A128A1583160313A000D5
:101260002008CD0066080A128A1169200A128A1520
:1012700083120313A801A9010230AA009230AB0027
:101280008316031364080A128A1169200A128A1548
:101290000E3083160313A0002008E000E52F0A1685
:1012A0008A1563230A128A1583160313A0002008E7
:1012B000E100C7290A168A1530220A128A15003A57
:1012C000031963296429E52F8316031361080A169D
:1012D0008A151F260A128A158316031361080A1637
:1012E0008A15CD240A128A15003A031D7829792916
:1012F00081292030831603136104CB000030CC0019
:101300008A29831603136108A000A1012008CB00DD
:101310002108CC004B080A168A155A250A128A158C
:10132000103083160313A0002008E000E52F0A16F2
:101330008A159F240A128A1590290A168A153B22BB
:101340000A128A1590290A128A11FC270A128A1594
:10135000023A031DAC29AD29B0290A128A11322B99
:101360000A168A11DC230A128A1590294A3083163C
:101370000313A0002008E000E52F2930A00020087A
:10138000E000E52F5A30A0002008E000E52F6108BA
:10139000A000A1012108003A0319CF29E52F200858
:1013A000233A0319B629093A0319A3291A3A03194A
:1013B000BD29043A03199D29023A031997290F3AC6
:1013C0000319C229783A03195A29033A03195A29E9
:1013D000013A03195A29073A03195A29E52F0A1223
:1013E0008A1193200A128A1548290330A000200888
:1013F00083120313A800A901E130AA009230AB00C8
:101400008316031364080A128A1169200A128A15C6
:10141000033083160313A000200883120313AD00CA
:10142000AE01AE0A0A128A11FC270A128A15FE3E84
:1014300083120313AF00FF3003180030B0000230F6
:1014400083160313A100210883120313B10083162E
:10145000031365080A128A1169200A128A150330DB
:1014600083160313A000200883120313AD00043079
:1014700083160313A100210883120313AE000A167A
:101480008A15B3210A128A15FE3E83120313AF0098
:10149000FF3003180030B000023083160313A2009F
:1014A000220883120313B1008316031365080A127E
:1014B0008A1169200A128A150B3083160313A000C3
:1014C0002008E000E52F4630A0002008E000D10110
:1014D000D10AE52F03305106031D6F2A702A3F2BD6
:1014E00002305B060319752A762A3F2B83120313F9
:1014F000A801A9019930AA009130AB00831603130B
:1015000064080A128A1169200A128A15FF308316AC
:101510000313A000200883120313B90001300A123C
:101520008A1165250A128A1583120313B90109303D
:101530000A128A1165250A128A1583120313B9014A
:10154000B90A0E300A128A1165250A128A1502306C
:1015500083160313A000200883120313A800A90117
:101560005A30AA009130AB008316031364080A12A4
:101570008A1169200A128A15023083160313A0000B
:10158000200883120313AD00043083160313A10057
:10159000210883120313AE000A128A11FC270A12D3
:1015A0008A15FE3E83120313AF00FF30031800308C
:1015B000B000023083160313A20022088312031323
:1015C000B1008316031365080A128A1169200A12F2
:1015D0008A15023083160313A00020088312031318
:1015E000AD00AE01AE0A0A168A15B5210A128A1597
:1015F000FF3E83120313AF00FF3003180030B0002A
:10160000023083160313A100210883120313B100D3
:101610008316031365080A128A1169200A128A15B3
:10162000023083160313A000200883120313AD00B9
:101630000B3083160313A100210883120313AE009D
:101640000A168A15D4210A128A1583120313200858
:10165000013EAF0021080318013E003EB0000530F6
:1016600083160313A200220883120313B10083160A
:10167000031365080A128A1169200A128A15831653
:1016800003135108031D452B462B502B1030A0008F
:101690002008E00066080A128A1169200A128A15D9
:1016A0000A168A1563230A128A1583160313A000EB
:1016B0002008E100702BDB01DB0AE52F0230A000DF
:1016C0002008DB00E52FDB01E52F02305B06031D60
:1016D0006A2B6B2BE52F0330A0002008DB00E52FE1
:1016E0006108A000A1012108003A0319782BE52F19
:1016F0002008233A03195B2B133A0319632B013A91
:101700000319652B043A03195E2BE52F0A168A1577
:1017100063230A128A1583160313A0002008E10030
:1017200030306102031C952B962BBD2B3A306102A1
:1017300003189B2B9C2BBD2BDE30A00020088312AE
:101740000313A6008316031361080A168A15FB24E7
:101750000A128A150030831603135F0279300319C9
:101760005E02031CB42BB52BB92B7830DE000030A1
:10177000DF002930A0002008E0002A306106031DA8
:10178000C22BC32BCF2BDE300A168A1502230A1276
:101790008A15293083160313A0002008E0002330A7
:1017A0006106031DD42BD52BE52F2A30A00020087D
:1017B000E000E52F0230A000200883120313A800E8
:1017C000A9014130AA009230AB00831603136408CC
:1017D0000A128A1169200A128A150230831603132D
:1017E000A000200883120313AD000F3083160313EB
:1017F000A100210883120313AE00831603135F08B0
:1018000083120313B000831603135E0883120313BD
:10181000AF00033083160313A200220883120313C0
:10182000B1008316031365080A128A1169200A128F
:101830008A15283083160313A0002008E000E52F46
:101840005E080A128A1500200A128A1583160313ED
:1018500066080A128A1169200A128A1590290A1646
:101860008A1563230A128A1583160313A000200821
:10187000E10030306102031C3E2C3F2C7B2C3A30BF
:1018800061020318442C452C7B2CDC30A00020087E
:1018900083120313A6008316031361080A168A1520
:1018A000FB240A128A152730831603135D021130B8
:1018B00003195C02031C5D2C5E2C622C1030DC00D2
:1018C0002730DD00353083160313A0002008E00028
:1018D000E52F0A168A15CD210A128A15902936306D
:1018E000A0002008E000E52FDC300A168A1502234C
:1018F0000A128A15622C6108A000A1012108003A91
:101900000319832CE52F2008233A03196F2C093A79
:101910000319742C6B3A0319692C033A0319692CC7
:10192000013A0319692C073A0319692CE52F660857
:101930000A128A1169200A128A1583120313A80158
:10194000A9014530AA009130AB0083160313640847
:101950000A128A1169200A128A1583120313AD0133
:101960000F3083160313A000200883120313AE0068
:10197000831603135D0883120313B0008316031349
:101980005C0883120313AF00053083160313A10014
:10199000210883120313B1008316031365080A128A
:1019A0008A1169200A128A15023083160313A000D7
:1019B000200883120313A800A9011730AA0092304F
:1019C000AB008316031364080A128A1169200A12F5
:1019D0008A15343083160313A0002008E000E52F99
:1019E000A13083120313A8009030A90083160313BB
:1019F00063080A128A1169200A128A150A168A15C2
:101A000063230A128A1583160313A0002008E1003D
:101A1000142D4B30A0002008E000E52F0A168A158F
:101A2000CD210A128A15622C6108A000A1012108AB
:101A3000003A03191C2DE52F2008233A0319092D1C
:101A4000093A03190E2DE52F66080A128A1169203A
:101A50000A128A15533083120313A8009030A9008C
:101A60008316031363080A128A1169200A128A1561
:101A70004C3083160313A0002008E0000A168A15D4
:101A800063230A128A1583160313A0002008E100BD
:101A9000C22D303083120313A0000030A100831642
:101AA00003136108A000A101200883120313A20000
:101AB00083160313210883120313A3000A168A1145
:101AC0002A250A128A15831203132008831603138A
:101AD000A200220883120313A700831603134D08E4
:101AE000A300230883120313A8000A300A168A15DC
:101AF00042230A128A15303083120313A0000030EB
:101B0000A100831603136108A000A101200883121D
:101B10000313A20083160313210883120313A300E7
:101B20000A168A112A250A128A158312031320081D
:101B300083160313A200220883120313A7000A16B8
:101B40008A15B1210A128A15023E83160313A300D7
:101B5000230883120313A8008316031367080A12CD
:101B60008A1169200A128A154D3083160313A000CA
:101B70002008E000E52F66080A128A1169200A127F
:101B80008A15B6296108A000A1012108003A0319AD
:101B9000CA2DE52F20082A3A0319BB2D1A3A03193A
:101BA000492D013A0319492D033A0319492D013AE8
:101BB0000319492D073A0319492D013A0319492DF3
:101BC000033A0319492D013A0319492D0F3A031914
:101BD000492D013A0319492DE52F66080A128A1189
:101BE00069200A128A1583160313D701043057029D
:101BF000031CFB2DFC2DFD2D362ED8011430580270
:101C0000031C032E042E052E312E5708A000200899
:101C100083120313A800831603135808A100210898
:101C200083120313A900E930AA009230AB00831697
:101C3000031364080A128A1169200A128A150A30ED
:101C400083120313A0000030A1000A168A15C722D0
:101C50000A128A15013083160313A0002008D80742
:101C6000FE2D0130A0002008D707F62DD901043041
:101C70005902031C3C2E3D2E3E2E772EDA011430E5
:101C80005A02031C442E452E462E722E5908A000DF
:101C9000200883120313A800831603135A08A10017
:101CA000210883120313A9005830AA009130AB0019
:101CB0008316031364080A128A1169200A128A150E
:101CC0000A3083120313A0000030A1000A168A15FF
:101CD000C7220A128A15013083160313A0002008B8
:101CE000DA073F2E0130A0002008D907372E8312D3
:101CF0000313A801A80AA901AE30AA009130AB00D5
:101D00008316031364080A128A1169200A128A15BD
:101D1000023083160313A000200883120313A800C7
:101D2000A9016F30AA009130AB0083160313640839
:101D30000A128A1169200A128A15003083120313CD
:101D4000A3000030A2000330A100E830A0000A1276
:101D50008A11F0270A128A154E3083160313A00049
:101D60002008E000E52F0A168A1546220A128A1575
:101D7000831203132308220421042004031DC12E0F
:101D8000C22EE52F622C0230A0002008831203131C
:101D9000A800A9012C30AA009230AB0083160313CF
:101DA00064080A128A1169200A128A150230831601
:101DB0000313A000200883120313AD000F30831615
:101DC0000313A100210883120313AE00831603132B
:101DD0005F0883120313B000831603135E08831297
:101DE0000313AF00033083160313A20022088312EB
:101DF0000313B1008316031365080A128A116920C0
:101E00000A128A155B3083160313A0002008E00035
:101E1000E52F0A168A1563230A128A1583160313FF
:101E2000A0002008E10030306102031C182F192F98
:101E3000402F3A30610203181E2F1F2F402FDE3033
:101E4000A000200883120313A60083160313610861
:101E50000A168A15FB240A128A150030831603130A
:101E60005F02653003195E02031C372F382F3C2FA9
:101E70006430DE000030DF005A30A0002008E000AF
:101E80002A306106031D452F462F522FDE300A16D9
:101E90008A1502230A128A155A3083160313A000EA
:101EA0002008E00023306106031D572F582FE52F2F
:101EB0005C30A0002008E000E52F5E080A168A15B5
:101EC00047240A128A15262C5D0883120313A100E9
:101ED000831603135C0883120313A0000A168A15E5
:101EE00025220A128A151E3083160313A00020082B
:101EF000E0005B2B831603136008A000A1012108FA
:101F0000003A0319842FE52F2008003A0319F42F13
:101F1000013A0319EE2F033A0A128A110319D02A43
:101F2000013A0319462B0A128A15053A0319F72FAD
:101F3000013A031930280F3A0A128A110319E82AC4
:101F40000A128A15013A0319FA2F033A03192829AC
:101F5000013A03194F29053A0319F5291E3A0319C5
:101F6000EF290E3A0319632A363A0319862B013AF0
:101F70000319DA2B033A0319202C1E3A03192F2CCC
:101F8000013A0319972C033A0319642F703A031985
:101F90006A2A013A0319FD2F0D3A0319F02C013A70
:101FA0000319242D073A03193E2D013A0319ED2D8B
:101FB000033A0319B32E143A0319C32E013A031935
:101FC000092F073A03195D2FE52F0A168A15C8262F
:101FD0000A128A157A2F0A128A110C280A128A11FB
:101FE000342D0A128A11E12A0A128A11AD2C0A1222
:101FF0008A11742B0A128A11112B0A128A11272BAB
:1020000031343A34203449344E3453344534523424
:1020100049345234203453344534513455344534E2
:102020004E344334493441340A3432343A3420345F
:1020300042345534533443344134523420345334CD
:1020400045345134553445344E34433449344134A5
:102050000A3433343A34203452344534503445341D
:10206000543449345234203455344C3454342E349E
:10207000203453344534513455340A3434343A34EA
:10208000203443344F344E34463449344734553485
:102090005234413443344F344534533420342034A3
:1020A00020342034003420344534533443344F3406
:1020B0004C34483441342034413420344D34453498
:1020C0004D344F345234493441340A34203451347D
:1020D00055344534203444344534533445344A343B
:1020E00041342034533441344C3456344134523426
:1020F0000A34203430342034203420343134203435
:10210000203420343234203420342034333420340A
:102110002034203434340A3420343534203420340C
:1021200020343634203420342034373420342034E2
:1021300020343834203420342034393420342034CE
:102140000034203420342034203444344534533493
:1021500045344A3441342034533441344C345634B9
:10216000413452342034203420340A342034203492
:1021700020342034203453344534513455344534DC
:102180004E3443344934413420343F3420342034F5
:102190000A340A34233420342D342034533449345F
:1021A0004D342034203420342034203420342A3458
:1021B00020342D3420344E3441344F3400344134F3
:1021C00054342B34433457345334413450343D3435
:1021D000223457346934723465346C346534733462
:1021E000733422342C3422342A342A342A342A34C4
:1021F0002A342A342A342A3422342C3431342C34EC
:1022000032342C3434342C3430340D340A34003429
:10221000413454342B3443344934503453345434DB
:102220004134523454343D342234543443345034E1
:1022300022342C3422343134393432342E34313493
:10224000363438342E3434342E34313422342C3471
:10225000223433343334333422340D340A340034EA
:10226000413454342B34433449345034533445349A
:1022700052345634453452343D3431342C343334B2
:10228000333433340D340A34003443346934633422
:102290006C346F3473343A34203420342034203496
:1022A000203420342034203420342034203420348E
:1022B000203400343C34203420342F342034203473
:1022C0003E34203463343A342034203420342034F3
:1022D000203420342034203420342034003420347E
:1022E000203420342034203420342034203453341B
:1022F00041344C345634413420342034203420349A
:10230000203420342034003420342034203420344D
:10231000203420345334453447344734543454340F
:1023200049342034203420342034203420342034E4
:10233000003420342034203420342034203420341D
:102340005B3420342034203420345D342034203475
:1023500020342034203420342034003420342034FD
:10236000203420342034203453344534513455340F
:1023700045344E34433449344134203420342034FD
:1023800020342034003420342034203420342034CD
:1023900044344F3420345334493453345434453462
:1023A0004D3441342034203420342034203400345F
:1023B000203420342034413420342034203442343A
:1023C0002034203420344334203420342034443426
:1023D000203420342034203400342034203420347D
:1023E00041344A34553453345434453420344F3412
:1023F000203449344E344934433449344F34203442
:10240000203400342034203449344E345334493499
:102410005234413420344F34533420345034413416
:10242000533453344F345334203420340034303454
:1024300020342D3420344334693463346C346F34A5
:10244000203463346F346E34743469346E347534CC
:102450006F3420342034003463346F346E34663487
:1024600069346734203463346F346E3474347234B6
:102470006C343A3420342034203420342034253451
:10248000003463346F346E34663469346734203416
:10249000743465346D3470346F343A3420342034FD
:1024A0002034203420342034733400344134543404
:1024B0002B34433457344134553454344F3443343B
:1024C0004F344E344E343D3430340D340A340034FD
:1024D000413454342B344334493450344D344F3424
:1024E000443445343D3430340D340A3400344134FE
:1024F00054342B34433457344D344F3444344534FE
:102500003D3430340D340A340034413454342B34E7
:10251000433457344D344F34443445343D343134EE
:102520000D340A340034413454342B3443344934A8
:1025300050344D34553458343D3431340D340A342C
:102540000034413454342B34433457344D344F34F5
:10255000443445343D3432340D340A34003441348B
:1025600054342B34433457344D344F34443445348D
:102570003D3433340D340A340034413454342B3474
:1025800043344934503443344C344F345334453459
:102590000D340A340034413454342B34433457342A
:1025A0004C34413450340D340A3400344134543402
:1025B0002B34433449344634533452340D340A34C2
:1025C00000343C34203420342F34203420343E3442
:1025D0000034FF3400347E088A007F0882000A1627
:1025E0008A11EB220A168A118000840A04087D06EB
:1025F00003190034FF0A0319FE0AEF2A831203139A
:10260000A601A701200821040319072B082B3F2B43
:10261000A501A50A162B01300310A00DA10DFF3E48
:10262000031D0C2B0130A4002408A507A11F192BA2
:102630001A2B0B2B01300310A60DA70DFF3E031D17
:102640001B2B21082302031D272B20082202031C19
:102650002A2B2B2B322B2008A2022108031CA303B8
:10266000A302261401300310A10CA00CFF3E031D91
:10267000332B0130A502031D3E2B3F2B1A2B2708BD
:10268000A1002608A000080083120313A401A501DD
:1026900004302502031C4D2B4E2B4F2B8E2B01306B
:1026A000A000250A552B0310A00DFF3E031D532B40
:1026B00020088800A6011030A000260A612B031014
:1026C000A00DFF3E031D5F2B200808050319692B91
:1026D0006A2B7F2B2508A00002300310A00DFF3EBF
:1026E000031D6D2BC2302007A10026082107A20080
:1026F0002208840083170008A3002308A4000130E7
:10270000A0002008A60704302602031C882B892B72
:102710005B2B0130A0002008A507482B24080800E7
:10272000413454342B3443344934503453344534D5
:102730004E3444343D342234003400340034003408
:1027400000340034003400340034003400340034E9
:102750000034003400340034003400344D34753417
:102760006E3464346F34203461346F342034733405
:1027700065347534203463346F346D3461346E34B1
:1027800064346F3431343234333441343434353496
:102790003634423437343834393443342A343034DC
:1027A000233444342234073400340A3400340034EF
:1027B0000034003400340034831203136D0803190D
:1027C000E22BE32B232C03306D02031CE82BE92BB7
:1027D000EB2B0130ED026D08523E8400DD30831397
:1027E0000002031CF42BF52B1C2C6D08523E0A161C
:1027F0008A1156260A168A11831203136D08523E57
:10280000840083130008DF390A168A151F260A166A
:102810008A11831203136D08523E8400831300084B
:10282000B300B4013308A0003408A10061300A16D7
:102830008A1153270A168A11831203136D08523E18
:102840008400831380010A128A116C270A168A11E8
:102850000800831203132403031D2F2C302C392C62
:102860008530A1009230A2000A168A158D260A161C
:102870008A110230831203132406031D402C412CBD
:10288000552CA130A1009230A2000A168A158D267F
:102890000A168A11DF3083120313A1009030A200C0
:1028A0000A168A158D260A168A110330831203131D
:1028B0002406031D5C2C5D2C722CAF30A1009230DD
:1028C000A2000A168A158D260A168A11DF30831295
:1028D0000313A1009030A2000A168A158D260A164D
:1028E0008A117B2C7730A1009230A2000A168A153B
:1028F0008D260A168A1108008B13831203132E08E3
:10290000B2002F08B3003008B4003108B50002301F
:102910000310B20DB30DB40DB50DFF3E031D882C91
:102920003508A3003408A2003308A1003208A00033
:102930000130A7003130A6002D30A5000030A400E2
:102940000A168A1185250A168A1183120313200894
:10295000FF3EB60021080318013EFF3EB7003608CF
:102960008316031399008312031337088316031386
:102970009A00181283160317871583160313181568
:1029800083120313981783160313981683120313E5
:102990001816831603138C160C120B178B170800CE
:1029A000003083120313A7000030A6000030A500FA
:1029B0000030A40041300A168A15CD240A168A1167
:1029C00083120313A3002308A40042300A168A15B9
:1029D000CD240A168A1183120313A3002308A5002D
:1029E00043300A168A15CD240A168A11831203135E
:1029F000A3002308A60044300A168A15CD240A161F
:102A00008A1183120313A3002308A7002430A30014
:102A10002308A800A9010830A3002308AA00232D39
:102A200028088400831300080319172D182D1D2D65
:102A300029082A04A3002308A9000130A3002308C1
:102A4000A8070310AA0C2A08031D272D282D102DD6
:102A50002908080083120313A601A31F302D312D6E
:102A6000382DA209A309A20A0319A30AA601A60ADE
:102A7000A11F3B2D3C2D412DA009A109A00A03193E
:102A8000A10A200821040319462D472D762DA50102
:102A9000A50A552D01300310A00DA10DFF3E031D09
:102AA0004B2D0130A4002408A507A11F582D592D36
:102AB0004A2D21082302031D5F2D20082202031C3A
:102AC000622D632D692D2008A2022108031CA30397
:102AD000A30201300310A10CA00CFF3E031D6A2DC0
:102AE0000130A502031D752D762D592D26080319D9
:102AF0007A2D7B2D802DA209A309A20A0319A30A0E
:102B00002308A1002208A00008000030831203134C
:102B1000AC000030AB000030AA000030A900230850
:102B20002204210420040319962D972DE42DAD01D4
:102B3000AD0AA72D0130A8000310A00DA10DA20D14
:102B4000A30DA80B9C2D0130A8002808AD07A31FDA
:102B5000AA2DAB2D9A2D0130A8000310A90DAA0DA6
:102B6000AB0DAC0DA80BAD2D23082702031DC22D04
:102B700022082602031DC22D21082502031DC22D95
:102B800020082402031CC52DC62DD52D2008A40223
:102B90002108031C210FA5022208031C220FA602F4
:102BA0002308031C230FA702291401300310A30CD0
:102BB000A20CA10CA00CFF3E031DD62D0130AD02CE
:102BC000031DE32DE42DAB2D2C08A3002B08A20040
:102BD0002A08A1002908A000080083120313A601F7
:102BE000A11FF32DF42DFB2DA009A109A00A0319A3
:102BF000A10AA601A60AA31FFE2DFF2D082EA209D9
:102C0000A309A20A0319A30A0130A4002408A606F6
:102C1000A701A8012008210403190F2E102E472E0A
:102C2000A501A50A1E2E01300310A00DA10DFF3E27
:102C3000031D142E0130A4002408A507A11F212E76
:102C4000222E132E01300310A70DA80DFF3E031DE9
:102C5000232E21082302031D2F2E20082202031CED
:102C6000322E332E3A2E2008A2022108031CA30381
:102C7000A302271401300310A10CA00CFF3E031D7A
:102C80003B2E0130A502031D462E472E222E26087C
:102C900003194B2E4C2E512EA709A809A70A031978
:102CA000A80A2808A1002708A0000800831203131F
:102CB000A200220884006530831300020318612EED
:102CC000622E632ED32E22088400DD30000203180A
:102CD0006A2E6B2EAC2E2208840064308002D32E24
:102CE0004130A0002208840020088000D32E6130EB
:102CF000A0002208840020088000D32E4230A000CB
:102D00002208840020088000D32E6230A000220810
:102D1000840020088000D32E4330A00022088400C5
:102D200020088000D32E6330A000220884002008F1
:102D30008000D32E4430A0002208840020088000A8
:102D4000D32E6430A0002208840020088000D32EF7
:102D5000220884008001D32E220884000008A000ED
:102D6000A1012108003A0319B62ED32E2008DD3A1E
:102D70000319702E033A0319772E013A03197E2E98
:102D80003F3A0319852E013A03198C2E033A031991
:102D9000932E013A03199A2E073A0319A12E1A3AD3
:102DA0000319A82ED32E080083120313A2000612C3
:102DB0002208A00004300310A00CFF3E031DDB2EF0
:102DC00006082006F0392006860086122203031921
:102DD000EA2EEB2EF12E02302206031DF02EF12EEC
:102DE000FC2E0D3083120313A100FB30A000A00BBA
:102DF000F72EA10BF72E032F413083120313A000EF
:102E0000A00B002F032F831203138616F030220528
:102E1000A00020302006031D0E2F0F2F282F061292
:102E20002208A00004300310A00CFF3E031D132F46
:102E300006082006F03920068600861241308312EB
:102E40000313A000A00B222F252F83120313861635
:102E500006120F302205A00006082006F0392006D1
:102E60008600861222030319362F372F3D2F02309A
:102E70002206031D3C2F3D2F482F0D3083120313D4
:102E8000A100FB30A000A00B432FA10B432F4F2F1D
:102E9000413083120313A000A00B4C2F4F2F83123D
:102EA00003138616080083120313A400EC2F2008D6
:102EB00084008317211C83130008031D602F612FDA
:102EC000FF2FFE30A200200884008317211C8313EB
:102ED00022088000FF2F6430A2002008840083179E
:102EE000211C831322088007FF2FDD30A200200859
:102EF00084008317211C831322088000FF2FDE30FB
:102F0000A200200884008317211C8313220880005C
:102F1000FF2FDF30A200200884008317211C8313B9
:102F200022088000FF2FE030A200200884008317D1
:102F3000211C831322088000FF2FE130A20020080B
:102F400084008317211C831322088000FF2FE230A6
:102F5000A200200884008317211C8313220880000C
:102F6000FF2FE330A200200884008317211C831365
:102F700022088000FF2FE430A2002008840083177D
:102F8000211C831322088000FF2F20088400831750
:102F9000211C83130008A200A3012308003A03198F
:102FA000D22FFF2F2208413A0319752F033A031934
:102FB000892F013A03199D2F073A0319B12F253A9A
:102FC00003197F2F033A0319932F013A0319A72FEF
:102FD000073A0319BB2FFF2F2408A200A3012308DF
:102FE000003A0319F42FFF2F2208613A0319C52F65
:102FF000113A0319572F043A03196B2FFF2F0800BA
:10300000FF1B0A2883137F1883170008840A0319FB
:10301000FF0A08007F087F398A000408840A031920
:04302000FF0A820021
:1033620052300800123008007A0808008312031352
:103372002008990008007910F9107911F911080054
:103382008312031385118515080083160313111B7D
:10339200CB29CC29C629080001300A168A11D42665
:1033A2000A168A150800770883120313A10076080B
:1033B200A0000800831203138801F0308316031360
:1033C2008800080064008001840A0406031900349E
:1033D2000406E429031083160313981C0314003017
:1033E20003180130080083120313A0002008523E84
:1033F2008400831300080800831603131115831237
:103402008C1D042A052A002A8C1108008316031336
:10341200111483128C1D0E2A0F2A0A2A8C110800FD
:10342200133416340D34193410341C34003400347F
:1034320000340034003400340034003401340434E5
:103442001F34003402340234831203132008A20012
:103452002208D2002108A2002208D300080012305C
:10346200831203136D02031C372A392A01303A2AC8
:10347200003008000330831203136C02031C422A3B
:10348200432A452A0130EC0208008312031347083D
:10349200A3004608A2004508A1004408A0000800B5
:1034A20083120313A0002008930083160313141839
:1034B2005B2A5C2A562A08008312031390103030CC
:1034C20090041015FD308F008F308E00101383167C
:1034D20003130C140B178B170800831203133B08FA
:1034E200B1003A08B0003908AF003808AE006A08E7
:1034F2000A128A1169200A168A1508008312031318
:103502002108A3002008A200A20EA30EF030A305FA
:1035120022080F39A304F030A2052208A0002308D4
:10352200A100080083120313A2000A168A15B5210E
:103532000A168A158312031322070A168A15F42122
:103542000A168A1583120313A1002108A300230877
:1035520008008B13831203130C1CB02AB12ABF2A52
:10356200831603130C1CB62AB72ABF2A831203132D
:103572000C100A168A1572240A168A158B177508FA
:103582008A00740E8300FE0E7E0E0900DB2A0730CD
:1035920083120313A3007C30A200A20BCE2AA30B3A
:1035A200CE2A0000013083120313A0020030031C54
:1035B200A103A1028312031320082104031DE22A9E
:1035C200E32AC82A080083120313A1008B132108DF
:1035D200831203178D00831203132008831203172B
:1035E2008C00831603178C130C1555308D00AA30EE
:1035F2008D008C148C18FE2AFF2AFB2A0C118B17C3
:10360200080083120313A8000A30A0000030A100B2
:103612002808840083130008A200840A0008A3007B
:103622000A168A11FE220A168A1583120313280823
:103632008400200883138000840A21088000080087
:103642000A168A153F270A168A15831203132908B8
:10365200A5002808A4000A168A15BB270A168A158F
:103662000A168A15FD210A168A15013083120313E0
:10367200A0000030A1000A168A15C7220A168A1570
:10368200080083120313AB002B08A900AA01290822
:10369200A0002A08A1000A168A157F220A168A1596
:1036A200831203132108AD002008AC002808A900EA
:1036B2002908A0002C0827070A168A15E4220A16F0
:1036C2008A15080083120313A8010A168A114423DB
:1036D2000A168A1583120313A7002708A9002908CE
:1036E2000319742B752B7E2B4E08031D792B7A2B15
:1036F2007E2B2908A7002708A8002908A700270869
:10370200CE002808080083120313AC019F2B0A3055
:10371200A0000030A1002A08A3002908A2000A166E
:103722008A11ED250A168A15831203132108AA00AD
:103732002008A9000130AB002B08AC0729082A0495
:10374200031DA42BA52B882B2C080800831203131E
:10375200A1008030A0002008A300A201C52B051102
:10376200210823050319B62BB72BB92B0514BA2B45
:103772000510851CBD2BBE2BC22B2308A0002008E0
:10378200A20405150310A30C2308031DC92BCA2B81
:10379200B02B05112208080083120313A401A5010E
:1037A200201CD42BD52BDB2B2208A4070318A50A37
:1037B2002308A50701300310A20DA30DFF3E031D30
:1037C200DC2B01300310A10CA00CFF3E031DE32BE8
:1037D20020082104031DEE2BEF2BD12B2508A1007D
:1037E2002408A0000800413454342B3443345734A5
:1037F2004A34413450343D342234003400340034ED
:103802000034003400340034003400340034003416
:103812000034003400340034003400340034003406
:1038220000340034003400340034003400340034F6
:1038320000340034003483160313871507168312ED
:1038420003131408F039083894003108A300300833
:10385200A2002F08A1002E08A0000030A7004C30C3
:10386200A6004B30A5004030A4000A168A11852517
:103872000A168A15831203132008FF3E83160313C8
:1038820093009417831203139416080083120313F0
:10389200B40012306D0203184F2C502C6C2C3430B3
:1038A200A0000030A10070300A168A1153270A16B0
:1038B2008A15831203133408B3006D08523E840044
:1038C2003308831380000130B3003308ED076D081D
:1038D200523E840080010A128A116C270A168A1548
:1038E2000800FD30831203138F008F308E004708CB
:1038F20046044504440403197F2C802C9D2C01307E
:10390200F0000030F1000030F2000030F3007008E7
:10391200C4027108031C710F8F2C902CC50272080F
:10392200031C720F952C962CC6027308031C730F8E
:103932009B2C9C2CC7029E2C101008001130831265
:1039420003136C020318A62CA72CC82C6D08FF3E8B
:10395200A000FF3003180030A1002108803A803C0B
:10396200031DB52C20086C020318B82CB92CC02CEE
:10397200013083120313A0002008EC07CC2C831221
:1039820003136D08FF3EA0002008EC00CC2C113080
:10399200A0002008EC00080083120313A200E42C0C
:1039A20079080139FA2C790C0139FA2C790CA0002A
:1039B200200C0139FA2C790CA000A00C200C013942
:1039C200FA2C0030FA2C2208A000A1012108003AAA
:1039D2000319EC2CE22C2008413A0319D12C033AAA
:1039E2000319D42C013A0319D72C073A0319DC2CFA
:1039F200E22C080083120313AB0026088400831311
:103A02000008A000840A0008A1000A30A2000030C9
:103A1200A3000A168A15CD230A168A1583120313E8
:103A22002B082007A7000030031801302107A80047
:103A32002708D03EA90028080318013EFF3EAA002D
:103A420026088400290883138000840A2A0880003B
:103A520008008316031789018316031306128612C0
:103A6200061086100611861183120313861605307E
:103A7200A0000030A1000A168A15C7220A168A156C
:103A820028300A168A11D4260A168A150C300A160C
:103A92008A11D4260A168A1501300A168A11D426EA
:103AA2000A168A1502300A168A11D4260A168A15AF
:103AB200080083120313B40012306D020318622D42
:103AC200632D842D34080319672D682D842D34301D
:103AD200A0000030A10061300A168A1153270A168D
:103AE2008A15831203133408B3006D08523E840012
:103AF2003308831380000130B3003308ED076D08EB
:103B0200523E840080010A128A116C270A168A1515
:103B1200080083120313A10006162108A000043036
:103B22000310A00CFF3E031D912D06082006F0395C
:103B3200200686008612413083120313A000A00BD8
:103B4200A02DA32D83120313861606160F3021050E
:103B5200A00006082006F0392006860086124130B1
:103B620083120313A000A00BB42DB72D83120313ED
:103B72008616080083120313A600A701CF2D40303A
:103B8200A4002408A700E22D1430A4002408A700F2
:103B9200E22D5430A4002408A700E22D2608A40038
:103BA200A5012508003A0319D72DE22D2408013A70
:103BB2000319C02D033A0319C52D013A0319CA2D61
:103BC200E22D230827077F39803E0A168A11D42660
:103BD2000A168A150800831203132708A900AA01EE
:103BE2002908A0002A08A1000A168A157F220A16AF
:103BF2008A15831203132108AC002008AB00AD0123
:103C02002D082807A9002908840083130008AA00A8
:103C12002A08A0002B082D070A168A15E4220A1684
:103C22008A15013083120313A9002908AD07103049
:103C32002D02031C1D2E1E2E012E080083120313BB
:103C4200A2003F2E791C262E282E7914292E7910B7
:103C5200552EF91C2D2E2F2EF914302EF910552E1B
:103C6200791D342E362E7915372E7911552EF91DE0
:103C72003B2E3D2EF9153E2EF911552E2208A0009D
:103C8200A1012108003A0319472E552E2008413A76
:103C92000319232E033A03192A2E013A0319312E4E
:103CA200073A0319382E552E080083120313A30076
:103CB2002308A2002208D1002008A2002208D00076
:103CC2002108A2002208CF0085118316031788114C
:103CD2008316031385118312031305118316031729
:103CE200081183160313051183120313051083169B
:103CF2000317081083160313051083120313050814
:103D02008316031788108316031385148312031373
:103D12000511051085150800B72E831203136908D3
:103D22000A128A1169200A168A15003A031D9A2E70
:103D32009B2E8E2E831203132208FF00210884007B
:103D42000A168A1500200A168A15A3002308A00065
:103D520068080A128A1169200A168A15013083122C
:103D62000313A1070318A20A0030A2078312031348
:103D72002208FF00210884000A168A1500200A166C
:103D82008A15003A031DC62EC72E8E2E08008312F6
:103D920003134F08FF3EA4002408A8000A168A1540
:103DA200C1210A168A1583120313A901F72E50089E
:103DB200A4002908A40228082407A50025088400D5
:103DC200831300080A168A15A7230A168A15831276
:103DD2000313A60029085107A70027088400260814
:103DE200831380000130A4002408A9074F08290288
:103DF200031CFC2EFD2ED82E0A168A15C1210A1686
:103E02008A150800831203132908AC002C08AD00A0
:103E12002908AC002C08A30028080A168A15BB251D
:103E22000A168A152E2F2B08FF002A0884000A166C
:103E32008A1500200A168A150A168A158A250A1674
:103E42008A15013083120313AA070318AB0A003044
:103E5200AB070130AC002C08AD07831203132B080B
:103E6200FF002A0884000A168A1500200A168A15FD
:103E7200003A031D3D2F3E2F142F08000A168A1503
:103E820007220A168A15013083120313A00000309C
:103E9200A1000A168A15C7220A168A15C0300A1608
:103EA2008A1551220A168A150A168A15C6210A1679
:103EB2008A15013083120313A0000030A1000A16F4
:103EC2008A15C7220A168A1560300A168A155122E7
:103ED2000A168A150A168A15C6210A168A1501308B
:103EE20083120313A0000030A1000A168A15C7220C
:103EF2000A168A15080083120313AB01A3010030CE
:103F02000A168A15BB250A168A15A72F0A302C060F
:103F120003198C2F8D2F942F2C080A168A158A25A7
:103F22000A168A159F2FA3010130AA002A08AB079F
:103F32002B080A168A15BB250A168A150130831228
:103F42000313A8070318A90A0030A9078312031351
:103F52002908FF00280884000A168A1500200A167C
:103F62008A15AA002A08AC002C08031DB92FBA2F03
:103F7200872F0800831203132508A7002408A60030
:103F820004300310A70CA60CFF3E031DC22F260807
:103F92000A168A1551220A168A150A168A15C62188
:103FA2000A168A15013083120313A0000030A10003
:103FB2000A168A15C7220A168A15831203132408C1
:103FC200A60003300310A60DFF3E031DE32F0310CE
:103FD200260D0A168A1551220A168A150A168A15FC
:103FE200C6210A168A15013083120313A00000307D
:0E3FF200A1000A168A15C7220A168A150800B1
:04400E00C220FF3F8E
:00000001FF
