:020000040000FA
:060000000A128A110C280F
:10000800FE00030EF4000A08F5000A168A151B29DB
:100018000A128A110F288317B430FD001A30FE0027
:100028003630FF00903084000A168A15E1200A1243
:100038008A118313E830FD001830FE007E30FF007F
:10004800DE3084000A168A15E1200A128A110A167F
:100058008A1522200A128A11E6000A168A15232018
:100068000A128A11E7000A128A11FF270A128A1156
:10007800FB0083160313E801E90148308400663069
:100088000A168A1559200A128A11F601F701F80191
:10009800F901FA0183010A168A11BE2DFF0000300A
:1000A8008A007F08820757280A168A15832D0A16A0
:1000B8008A1543280A168A15B52B0A168A15FC2DA7
:1000C8000A128A111A2F0A168A15A72C83160313E7
:1000D800D801D80A1C2D0230C40044088316031323
:1000E800D8001C2D83160313D8011C2D023083164B
:1000F80003135806031D812882281C2D0330831200
:100108000313C400440883160313D8001C2D5D088C
:1001180083120313C400C5014508003A0319952842
:100128001C2D4408233A03196A28133A0319762820
:10013800013A03197A28043A03196F281C2D0A1664
:100148008A15F2210A128A1183120313C400440883
:1001580083160313DD0030305D02031CB428B52874
:10016800E0283A305D020318BA28BB28E028D930C5
:1001780083120313C4004408A600831603135D0802
:100188000A168A1586230A128A1100308316031369
:100198005A02793003195902031CD328D428D828C5
:1001A8007830D9000030DA00293083120313C400F4
:1001B800440883160313DB002A305D06031DE52877
:1001C800E628F428D9300A168A1591210A128A11CC
:1001D800293083120313C400440883160313DB0079
:1001E80023305D06031DF928FA281C2D2A308312B6
:1001F8000313C400440883160313DB001C2D0230CC
:10020800C4004408A800A901DB30AA008930AB006B
:100218008316031360080A128A1152200A128A11DF
:10022800023083120313C4004408AD000F30C50028
:100238004508AE00831603135A0883120313B0004F
:1002480083160313590883120313AF000330C60043
:100258004608B1008316031361080A128A11522056
:100268000A128A11283083120313C4004408831623
:100278000313DB001C2D8316031359080A168A156D
:1002880015240A128A118316031362080A128A11A6
:1002980052200A128A110A128A15432C0A168A1544
:1002A800F2210A128A1183120313C4004408831628
:1002B8000313DD0030305D02031C63296429A4297F
:1002C8003A305D02031869296A29A429D4308312B7
:1002D8000313C4004408A600831603135D080A1616
:1002E8008A1586230A128A112730831603135502AA
:1002F800113003195402031C8229832987291030DD
:10030800D4002730D500353083120313C4004408C5
:1003180083160313DB001C2D0A168A1543200A12C4
:100328008A114F293630C400440883160313DB00B2
:100338001C2DD4300A168A1591210A128A11872990
:100348005D0883120313C400C5014508003A031968
:10035800AE291C2D4408233A03199629093A031992
:100368009D296B3A03199029033A03199029013AF8
:1003780003199029073A031990291C2D8316031392
:1003880062080A128A1152200A128A118312031370
:10039800A801A901DF30AA008830AB008316031337
:1003A80060080A128A1152200A128A118312031352
:1003B800AD010F30C4004408AE008316031355087E
:1003C80083120313B0008316031354088312031314
:1003D800AF000530C5004508B10083160313610856
:1003E8000A128A1152200A128A1102308312031348
:1003F800C4004408A800A901B130AA008930AB00A4
:100408008316031360080A128A1152200A128A11ED
:10041800343083120313C400440883160313DB002B
:100428001C2DA130A8008830A900831603135F088B
:100438000A128A1152200A128A110A168A15F22102
:100448000A128A1183120313C40044088316031383
:10045800DD003B2A4B30C400440883160313DB003D
:100468001C2D0A168A1543200A128A1187295D084D
:1004780083120313C400C5014508003A0319452A2D
:100488001C2D4408233A03192E2A093A0319352A40
:100498001C2D8316031362080A128A1152200A12AD
:1004A8008A11533083120313A8008830A9008316D9
:1004B80003135F080A128A1152200A128A114C305B
:1004C80083120313C400440883160313DB000A16BF
:1004D8008A15F2210A128A1183120313C4004408F0
:1004E80083160313DD00E32A3030A0000030A1009A
:1004F800831603135D0883120313C400C50144085F
:10050800A2004508A3000A168A1167200A128A1158
:10051800831203132008C6004608A7008316031396
:10052800480883120313C7004708A8000A300A16B0
:100538008A15D1210A128A11303083120313A000C0
:100548000030A100831603135D0883120313C4004F
:10055800C5014408A2004508A3000A168A116720AD
:100568000A128A11831203132008C6004608A7003E
:100578000A168A151C200A128A11023E83120313D6
:10058800C7004708A8008316031363080A128A11D4
:1005980052200A128A114D3083120313C4004408F2
:1005A80083160313DB001C2D8316031362080A123B
:1005B8008A1152200A128A110A128A156B2C5D08B8
:1005C80083120313C400C5014508003A0319ED2A34
:1005D8001C2D44082A3A0319D82A1A3A0319782AEA
:1005E800013A0319782A033A0319782A013A0319B8
:1005F800782A073A0319782A013A0319782A033A1C
:100608000319782A013A0319782A0F3A0319782A24
:10061800013A0319782A1C2D8316031362080A125B
:100628008A1152200A128A1183160313CF0104304B
:100638004F02031C202B212B222B612BD0011430BD
:100648005002031C282B292B2A2B582B4F088312C6
:100658000313C4004408A800831603135008831228
:100668000313C5004508A900F830AA008930AB007B
:100678008316031360080A128A1152200A128A117B
:100688000A3083120313A0000030A1000A168A154D
:1006980038210A128A11013083120313C400440856
:1006A80083160313D007232B013083120313C400CE
:1006B800440883160313CF071B2BD10104305102C2
:1006C800031C672B682B692BA82BD201143052020C
:1006D800031C6F2B702B712B9F2B51088312031354
:1006E800C4004408A8008316031352088312031396
:1006F800C5004508A900F230AA008830AB0083166F
:10070800031360080A128A1152200A128A110A3049
:1007180083120313A0000030A1000A168A1538219D
:100728000A128A11013083120313C4004408831685
:100738000313D2076A2B013083120313C400440841
:1007480083160313D107622B83120313A801A80A87
:10075800A9014830AA008930AB008316031360084A
:100768000A128A1152200A128A11023083120313C4
:10077800C4004408A800A9010930AA008930AB00C8
:100788008316031360080A128A1152200A128A116A
:10079800003083120313A9000030A8000330A7001B
:1007A800E830A6000A168A15C0200A128A114E30AF
:1007B80083120313C400440883160313DB001C2DA3
:1007C8000A168A15A9200A128A118312031323080C
:1007D800220421042004031DF22BF32B1C2D87294E
:1007E8000230C4004408A800A901C630AA00893014
:1007F800AB008316031360080A128A1152200A12EA
:100808008A11023083120313C4004408AD000F306C
:10081800C5004508AE00831603135A088312031354
:10082800B00083160313590883120313AF00033073
:10083800C6004608B1008316031361080A128A111C
:1008480052200A128A115B3083120313C400440831
:1008580083160313DB001C2D0A168A15F2210A12CF
:100868008A1183120313C400440883160313DD009E
:1008780030305D02031C412C422C6D2C3A305D0255
:100888000318472C482C6D2CD93083120313C4004D
:100898004408A600831603135D080A168A158623E2
:1008A8000A128A110030831603135A02653003199D
:1008B8005902031C602C612C652C6430D90000306F
:1008C800DA005A3083120313C40044088316031352
:1008D800DB002A305D06031D722C732C812CD93065
:1008E8000A168A1591210A128A115A3083120313A3
:1008F800C400440883160313DB0023305D06031D80
:10090800862C872C1C2D5C3083120313C4004408EA
:1009180083160313DB001C2D8316031359080A16CC
:100928008A15D2220A128A114729831603135508F9
:1009380083120313A10083160313540883120313AD
:10094800A0000A168A1588200A128A111E308312FE
:100958000313C400440883160313DB006A288316B4
:1009680003135B0883120313C400C5014508003A4A
:100978000319BF2C1C2D4408003A0319ED2E013A27
:100988000319E72E033A0319FC2E013A0319F02E36
:10099800053A03190E2F013A0319082F0F3A0319C4
:1009A800FF2E013A0319F32E033A0319112F013AC6
:1009B80003190B2F053A0A128A150319C52C1E3A7A
:1009C8000319BD2C0A128A110E3A0319142F363A4C
:1009D8000319A328013A03190329033A03193F29E4
:1009E8001E3A03195229013A0319C229033A031975
:1009F800992C703A0319172F013A0319F62E0D3A5C
:100A08000319152A013A03194D2A073A03196B2AC3
:100A1800013A0319102B033A0319E42B143A03196A
:100A2800F42B013A0319302C073A0319902C1C2D8A
:100A38000A168A1548250A128A11BB2E0A128A1527
:100A4800FA210A128A110A168A1524200A128A1112
:100A5800023083120313C400440883160313D6001C
:100A6800B32C0A168A1520200A128A110A168A152A
:100A780061200A128A1183120313C40044088316E2
:100A88000313DC00580303194A2D4B2D562D033050
:100A980058060319502D512D562D5808031D552D54
:100AA800562DB32C033083120313C4004408831655
:100AB8000313D600B32C6530831603135C02031CA2
:100AC800662D672D6D2DFE305C06031D6C2D6D2D7A
:100AD800BE2DDC300A168A11EE210A128A11003066
:100AE80083120313B0000030AF000030AE00643052
:100AF800AD00831603135C0883120313C400C501F9
:100B0800C601C7014708A3004608A2004508A1007E
:100B18004408A0000030A7000030A6000F30A50050
:100B2800FF30A4000A168A15C6260A128A118312F3
:100B380003132308B4002208B3002108B2002008D8
:100B4800B1000A168A116F230A128A11831203133D
:100B58002E08BD002D08BC000A168A15B0210A12FD
:100B68008A11063083120313C40044088316031342
:100B7800D600B32C65305C02031CC32DC42DF72DA1
:100B8800DD305C020318C92DCA2DF72D6430DC0254
:100B98005C0883120313C400C5014408A00045087B
:100BA800A100E830A2000330A3000A168A158022AB
:100BB8000A128A11831203132008A6002108A7002D
:100BC8000030A71BFF30A800A9000A168A15C0200C
:100BD8000A128A11043083120313C40044088316CE
:100BE8000313D600B32CDC300A168A11EE210A1240
:100BF8008A11D73083120313C4004408A000831657
:100C080003135C080A168A11C2200A128A110530D9
:100C180083120313C400440883160313D600B32CAD
:100C28000A168A15A9200A128A11831203132308A7
:100C3800220421042004031D222E232EB32CB52DBB
:100C4800D330C4004408A000831603135C080A16B6
:100C58008A15A7270A128A11003A0319342E352E4D
:100C6800B32CB52D0330831603135806031D3D2EF0
:100C78003E2E462E023083120313C4004408831606
:100C88000313D800073083120313C40044088316E3
:100C98000313D600B32C0A168A1100200A128A11EF
:100CA8000A168A1527200A128A1183120313C40010
:100CB8000A168A1520200A128A1183120313C50006
:100CC800440845020318692E6A2E732E02308312D7
:100CD8000313C400440883160313D600B32C0A1662
:100CE8008A153C200A128A11083083120313C400A3
:100CF800440883160313D600B32C8316031358082D
:100D08000319872E882EB72E0A168A154A200A122A
:100D18008A11831203132008C4002108C5000A168B
:100D28008A1555210A128A118312031321084502D4
:100D3800031DA02E20084402031CA32EA42EB12EAE
:100D48000A168A1555210A128A11831203132008DC
:100D58002104031DB02EB12EB72E0A128A15FA21CE
:100D68000A128A116A2E83160313D601B32C83162E
:100D78000313560883120313C400C5014508003A3B
:100D88000319C72EB32C4408003A0319B32C013AAF
:100D98000319222D033A0319352D013A03195F2D42
:100DA800073A0319142E013A0319242E033A03199A
:100DB800362E013A03194F2E0F3A0319812EB32C00
:100DC8000A128A110C280A168A11A92E0A168A11E3
:100DD8001C2D0A168A11142E0A168A118C2D0A1631
:100DE8008A114E2D0A168A11642D0A128A15D42AE0
:100DF8000A168A110B2D0A168A11232D0A128A1532
:100E08004C2C0A128A15032C0A128A15C52A0A12B2
:100E18008A15F42B0A128A15012A0A128A15C92B77
:100E28000A128A15232D0A128A152C2D83120313F0
:100E3800B01B1F2F212F0130222F0030B2003208A3
:100E4800B60036080319292F2A2F2F2FAF09B0090A
:100E5800AF0A0319B00A2E08B2003208A3002D0801
:100E68000A168A1576240A128A111030831203137F
:100E7800B7002730B8000530B2003208B500702F2F
:100E8800831203133808A1003708A0003008A30014
:100E98002F08A2000A168A1185210A128A118312C4
:100EA800031320082104031D5A2F5B2F882F0130BC
:100EB800B5020A30A0000030A1003808A3003708A6
:100EC800A2000A168A1185210A128A1183120313B5
:100ED8002108B8002008B7003808803AFF008030A1
:100EE8007F02031D792F0130370203187C2F7D2FD5
:100EF800442F882F20300A168A1545240A128A1191
:100F0800013083120313B102831203133508360725
:100F1800B200B301B30D3308803AB4008030340214
:100F2800031D982F3108320203189B2F9C2FA42FE2
:100F380002308312031331020318A32FA42F7E2F2C
:100F48008312031336080319AA2FAB2FB12F2D30A4
:100F58000A168A1545240A128A11831203133808BF
:100F6800A1003708A0003008A3002F08A2000A1625
:100F78008A1185210A128A11831203132008303E30
:100F88000A168A1545240A128A118312031338088F
:100F9800A1003708A0003008A3002F08A2000A16F5
:100FA8008A1167200A128A11831203132108B000DC
:100FB8002008AF000A30A0000030A1003808A300C4
:100FC8003708A2000A168A1185210A128A1183128B
:100FD80003132108B8002008B7003808803AFF003A
:100FE80080307F02031DFA2F013037020318FD2FCE
:100FF800FE2FB12F0800023431343A3420344934FA
:101008004E345334453452344934523420345334F2
:1010180045345134553445344E34433449344134DD
:101028000A3432343A342034423455345334433455
:1010380041345234203453344534513455344534D2
:101048004E344334493441340A3433343A34203446
:1010580052344534503445345434493452342034AD
:1010680055344C3454342E342034533445345134AC
:1010780055340A3434343A34203443344F344E34FB
:1010880046344934473455345234413443344F3468
:101098004534533420342034203420340034203470
:1010A8004534533443344F344C3448344134203479
:1010B800413420344D3445344D344F34523449345E
:1010C80041340A34203451345534453420344434BE
:1010D8004534533445344A3441342034533441344C
:1010E8004C345634413452340A34203430342034A9
:1010F8002034203431342034203420343234203425
:1011080020342034333420342034203434340A3426
:1011180020343534203420342034363420342034FC
:1011280020343734203420342034383420342034E8
:10113800203439342034203400342034203420340E
:10114800203444344534533445344A34413420340B
:10115800533441344C3456344134523420342034DE
:1011680020340A34203420342034203420345334BA
:1011780045345134553445344E344334493441347C
:1011880020343F34203420340A340A3423342034C1
:101198002D342034533449344D3420342034203411
:1011A8002034203420342A3420342D3420344E3452
:1011B80041344F3400344334693463346C346F340D
:1011C80073343A342034203420342034203420340A
:1011D8002034203420342034203420342034003487
:1011E8003C34203420342F34203420343E3420340E
:1011F80063343A34203420342034203420342034EA
:101208002034203420342034003420342034203456
:1012180020342034203420342034533441344C34A6
:1012280056344134203420342034203420342034BF
:101238002034003420342034203420342034203426
:1012480053344534473447345434543449342034BF
:101258002034203420342034203420340034203406
:101268002034203420342034203420345B3420349B
:101278002034203420345D34203420342034203489
:1012880020342034203400342034203420342034D6
:1012980020342034533445345134553445344E3495
:1012A8004334493441342034203420342034203429
:1012B80000342034203420342034203444344F3453
:1012C8002034533449345334543445344D34413440
:1012D8002034203420342034203400342034203486
:1012E8002034413420342034203442342034203413
:1012F80020344334203420342034443420342034FF
:1013080020342034003420342034203441344A340A
:10131800553453345434453420344F34203449340C
:101328004E344934433449344F3420342034003463
:101338002034203449344E345334493452344134FF
:1013480020344F34533420345034413453345334DC
:101358004F345334203420340034303420342D3486
:1013680020344334693463346C346F342034633448
:101378006F346E34743469346E3475346F34203499
:101388002034003463346F346E346634693467341F
:10139800203463346F346E34743472346C343A34B9
:1013A800203420342034203420342534003463346D
:1013B8006F346E3466346934673420347434653479
:1013C8006D3470346F343A3420342034203420346F
:1013D80020342034733400343C34203420342F3407
:1013E800203420343E340034FF3400340230831279
:1013F8000313A0002008FB0008000330C4004408C1
:10140800A800A9017230AA008930AB008316031323
:1014180060080A128A1152200A128A1504308312AF
:101428000313C4004408A30003300A168A1576245F
:101438000A128A1541300A168A1558230A128A1583
:10144800003A031D282A292A302A2D30831603132F
:10145800B6000030B700362A2B3083160313B600C7
:101468000030B70036080A168A1545240A128A156C
:10147800083083120313C4004408A30003300A167B
:101488008A1576240A128A1542300A168A155823B4
:101498000A128A15003A031D522A532A5A2A2D3055
:1014A80083160313B8000030B900602A2B30831666
:1014B8000313B8000030B90038080A168A15452405
:1014C8000A128A150C3083120313C4004408A300BF
:1014D80003300A168A1576240A128A1543300A162A
:1014E8008A1558230A128A15003A031D7C2A7D2A78
:1014F800842A2D3083160313BA000030BB008A2AD1
:101508002B3083160313BA000030BB003A080A16C2
:101518008A1545240A128A15103083120313C40051
:101528004408A30003300A168A1576240A128A157D
:1015380044300A168A1558230A128A15003A031DE0
:10154800A62AA72AAE2A2D3083160313BC00003022
:10155800BD00B42A2B3083160313BC000030BD0035
:101568003C080A168A1545240A128A150730831280
:101578000313C400440883160313DB000A128A11FC
:101588001C2D0A168A15F2210A128A1583120313D2
:10159800C400440883160313DD000A128A15A72B1A
:1015A800831603135D080A168A15DA240A128A15A7
:1015B800043083120313C4004408A30003300A163E
:1015C8008A1576240A128A1541300A168A15582374
:1015D8000A128A15003A031DF22AF32AFA2A2D3034
:1015E80083160313BE000030BF00002B2B30831678
:1015F8000313BE000030BF003E080A168A154524B2
:101608000A128A15C22A831603135D080A168A1558
:10161800DA240A128A15083083120313C400440816
:10162800A30003300A168A1576240A128A15423056
:101638000A168A1558230A128A15003A031D252B03
:10164800262B2D2B2D3083160313C0000030C1002C
:10165800332B2B3083160313C0000030C100400821
:101668000A168A1545240A128A150C2C83160313A8
:101678005D080A168A15DA240A128A150C308312B4
:101688000313C4004408A30003300A168A157624FD
:101698000A128A1543300A168A1558230A128A151F
:1016A800003A031D582B592B602B2D30831603133A
:1016B800C2000030C300662B2B3083160313C20010
:1016C8000030C30042080A168A1545240A128A15F2
:1016D8000C2C831603135D080A168A15DA240A12DD
:1016E8008A15103083120313C4004408A300033082
:1016F8000A168A1576240A128A1544300A168A159B
:1017080058230A128A15003A031D8B2B8C2B932B16
:101718002D3083160313C4000030C500992B2B30DD
:1017280083160313C4000030C50044080A168A153E
:1017380045240A128A150C2C0A30C4004408831662
:101748000313DB000C2C5D0883120313C400C501CE
:101758004508003A0319B12B0C2C4408233A031905
:10176800A02B093A0A128A110319EA2E0A128A15BD
:101778006B3A03197B2C033A0319072B013A031917
:101788003A2B073A03196D2B0C2C0A168A110D20D7
:101798000A128A1583120313C4004408831603131C
:1017A800C80062080A128A1152200A128A15831286
:1017B8000313A801A9019C30AA008930AB00831645
:1017C800031360080A128A1152200A128A150E3071
:1017D80083120313C400440883160313DB000C2C84
:1017E8000A168A15F2210A128A1583120313C400F5
:1017F800440883160313DD000A128A15872C0A167B
:101808008A1593200A128A15003A03190C2C0F2CFA
:101818000A128A111C2D831603135D080A168A15ED
:10182800DA240A128A15831603135D080A168A1524
:1018380058230A128A15003A031D232C242C2C2C19
:101848002030831603135D04C6000030C7003D2C0A
:10185800831603135D0883120313C400C5014408EB
:1018680083160313C6008312031345088316031354
:10187800C70046080A168A15E5230A128A15103089
:1018880083120313C400440883160313DB000C2CD3
:101898000A168A152A230A128A15432C0A168A154B
:1018A8009E200A128A15432C0A168A1527200A1226
:1018B8008A15023A031D612C622C652C0A168A11BE
:1018C800712D0A168A155A270A128A15432C4A308E
:1018D80083120313C400440883160313DB000C2C83
:1018E8002930C400440883160313DB000C2C0A12A9
:1018F8008A11F92E5A30C400440883160313DB00FA
:101908000A128A111C2D5D0883120313C400C50135
:101918004508003A0319912C842C4408233A0A12EA
:101928008A110319E02A093A0A128A150319582C50
:101938001A3A0319742C043A0319522C0A128A15FC
:10194800023A0319092E0F3A03197E2C783A0A1223
:101958008A150319032C033A0A128A110319052F51
:101968000A128A15013A03190C2E073A03190C2E8C
:10197800842C0A128A150F260A128A150A128A1549
:10198800EB2B0330C4004408A800A901F030AA00DA
:101998008930AB008316031360080A128A1152209B
:1019A8000A128A15033083120313C4004408AD00D9
:1019B800AE01AE0A0A168A1527200A128A15FE3EBB
:1019C80083120313AF00FF3003180030B000023059
:1019D800C5004508B1008316031361080A128A116D
:1019E80052200A128A15033083120313C4004408D4
:1019F800AD000430C5004508AE000A168A151E2041
:101A08000A128A15FE3E83120313AF00FF30031833
:101A18000030B0000230C6004608B1008316031338
:101A280061080A128A1152200A128A150B30831291
:101A38000313C400440883160313DB00842C4630C8
:101A4800C400440883160313DB00D601D60A842C8D
:101A58000330831603135606031D332D342DE52D4D
:101A6800023058060319392D3A2DE52D8312031338
:101A7800A801A9013330AA008930AB0083160313EB
:101A880060080A128A1152200A128A15FF3083123E
:101A98000313C4004408B90001300A168A11DE266F
:101AA8000A128A1583120313B90109300A168A111A
:101AB800DE260A128A1583120313B901B90A0E30F9
:101AC8000A168A11DE260A128A15023083120313B7
:101AD800C4004408A800A901F430AA008830AB006B
:101AE8008316031360080A128A1152200A128A15F3
:101AF800023083120313C4004408AD000430C5004B
:101B08004508AE000A168A1527200A128A15FE3ED5
:101B180083120313AF00FF3003180030B000023007
:101B2800C6004608B1008316031361080A128A1119
:101B380052200A128A15023083120313C400440883
:101B4800AD00AE01AE0A0A168A1520200A128A15BF
:101B5800FF3E83120313AF00FF3003180030B000BC
:101B68000230C5004508B1008316031361080A1244
:101B78008A1152200A128A15023083120313C400F4
:101B88004408AD000B30C5004508AE000A168A159A
:101B98004A200A128A15831203132008013EAF0057
:101BA80021080318013E003EB0000530C600460873
:101BB800B1008316031361080A128A1152200A120F
:101BC8008A15831603135608031DEB2DEC2DFA2DE9
:101BD800103083120313C400440883160313DB0078
:101BE80062080A128A1152200A128A150A168A15E0
:101BF800F2210A128A1583120313C40044088316BB
:101C08000313DD000A128A118B280A128A11022F87
:101C18000A128A11052F83120313AE01B101B00114
:101C28006608A9002908AF00A30100300A168A1522
:101C380076240A128A15831203132E080319252EF7
:101C4800262E332E20300A168A1545240A128A15A4
:101C5800013083120313A9002908B007F92F2F08B0
:101C6800543E840083130008A9002908B2000130FB
:101C7800A9002908AF073208031D432E442E472E1A
:101C8800AE01AE0AF92F6530320203184C2E4D2EE4
:101C9800DA2E3208A9002908B10064303102031C89
:101CA800562E572E8B2E31300A168A1545240A12C5
:101CB8008A15013083120313A9002908B00764307C
:101CC800A0000030A1003108A900AA012908A2003B
:101CD8002A08A3000A168A1167200A128A15831295
:101CE80003132008AB002B08B1000A303102031897
:101CF8007E2E7F2E8B2E30300A168A1545240A1226
:101D08008A15013083120313A9002908B0070A3085
:101D18003102031C902E912EC62E0A30A0000030EE
:101D2800A1003108A900AA012908A2002A08A300D5
:101D38000A168A1185210A128A15831203132008AC
:101D4800303E0A168A1545240A128A150130831274
:101D58000313A9002908B0070A30A0000030A10029
:101D68003108A900AA012908A2002A08A3000A1616
:101D78008A1167200A128A15831203132008AB0000
:101D88002B08B1003108303E0A168A1545240A127C
:101D98008A15013083120313A9002908B0072530DA
:101DA8000A168A1545240A128A152C2E6530320225
:101DB800031CDF2EE02E7B2FDD3032020318E52EC8
:101DC800E62E7B2F32300A168A11EE210A128A1566
:101DD800831203133208A9002908B10064303102C4
:101DE800031CF72EF82E2C2F31300A168A1545249D
:101DF8000A128A15013083120313A9002908B007B3
:101E08006430A0000030A1003108A900AA01290807
:101E1800A2002A08A3000A168A1167200A128A1546
:101E2800831203132008AB002B08B1000A303102DB
:101E380003181F2F202F2C2F30300A168A154524FF
:101E48000A128A15013083120313A9002908B00762
:101E58000A303102031C312F322F672F0A30A000BD
:101E68000030A1003108A900AA012908A2002A0807
:101E7800A3000A168A1185210A128A1583120313F0
:101E88002008303E0A168A1545240A128A150130A0
:101E980083120313A9002908B0070A30A0000030F4
:101EA800A1003108A900AA012908A2002A08A30054
:101EB8000A168A1167200A128A158312031320084A
:101EC800AB002B08B1003108303E0A168A154524AC
:101ED8000A128A15013083120313A9002908B007D2
:101EE80073300A168A1545240A128A152C2EDD30FD
:101EF8003202031C802F812FD32FFE3032020318A9
:101F0800862F872FD32F32300A168A11EE210A1214
:101F18008A15AF2F3208DF390A168A1545240A12A6
:101F28008A15013083120313A9002908B007B21AD1
:101F38009E2F9F2FA42F2B30AC000030AD00A82F70
:101F48002D30AC000030AD002C080A168A15452447
:101F58000A128A152C2E831203133208A900AA012B
:101F68002A08003A0319B92FF92F2908413A031909
:101F78008E2F033A03198E2F013A03198E2F073A31
:101F880003198E2F253A03198E2F033A03198E2F22
:101F9800013A03198E2F073A03198E2FF92FFE30B5
:101FA8003206031DD82FD92FF92F32300A168A117D
:101FB800EE210A128A15831203133208A900290890
:101FC800B1003108303E0A168A1545240A128A15CE
:101FD800013083120313A9002908B00725300A1617
:101FE8008A1545240A128A152C2E15303002031C36
:101FF800FE2FFF2F1F2E08008312031367087B0292
:102008000318072808280C280130A0002008FB071F
:102018000800003083120313A7000030A600003028
:10202800A5000030A40041300A168A1558230A1664
:102038008A1183120313A3002308A40042300A164E
:102048008A1558230A168A1183120313A30023083A
:10205800A50043300A168A1558230A168A118312D6
:102068000313A3002308A60044300A168A15582330
:102078000A168A1183120313A3002308A700243029
:10208800A3002308A800A9010830A3002308AA0078
:102098006028280884008313000803195428552849
:1020A8005A2829082A04A3002308A9000130A300FC
:1020B8002308A8070310AA0C2A08031D642865280A
:1020C8004D282908080083120313A601A31F6D28B1
:1020D8006E287528A209A309A20A0319A30AA60152
:1020E800A60AA11F782879287E28A009A109A00A94
:1020F8000319A10A20082104031983288428B32876
:10210800A501A50A922801300310A00DA10DFF3EDC
:10211800031D88280130A4002408A507A11F9528BD
:102128009628872821082302031D9C2820082202BC
:10213800031C9F28A028A6282008A2022108031C07
:10214800A303A30201300310A10CA00CFF3E031D42
:10215800A7280130A502031DB228B328962826080F
:102168000319B728B828BD28A209A309A20A031988
:10217800A30A2308A1002208A00008008312031361
:10218800A300FA2820088400831300141C29FE30B9
:10219800A100200884002108831380051C29200839
:1021A8008400831380141C29FD30A10020088400BA
:1021B8002108831380051C29200884008313001537
:1021C8001C29FB30A1002008840021088313800506
:1021D8001C2920088400831380151C29F730A100CE
:1021E800200884002108831380051C292308A100E6
:1021F800A2012208003A031902291C292108413AA0
:102208000319C628033A0319D328013A0319E02809
:10221800073A0319ED28253A0319CB28033A03197D
:10222800D828013A0319E528073A0319F2281C2986
:102238000800003083120313AC000030AB000030FC
:10224800AA000030A900230822042104200403194D
:102258002E292F297C29AD01AD0A3F290130A8007C
:102268000310A00DA10DA20DA30DA80B3429013058
:10227800A8002808AD07A31F4229432932290130A5
:10228800A8000310A90DAA0DAB0DAC0DA80B45298C
:1022980023082702031D5A2922082602031D5A294A
:1022A80021082502031D5A2920082402031C5D2940
:1022B8005E296D292008A4022108031C210FA5020C
:1022C8002208031C220FA6022308031C230FA702BF
:1022D800291401300310A30CA20CA10CA00CFF3E82
:1022E800031D6E290130AD02031D7B297C2943297A
:1022F8002C08A3002B08A2002A08A1002908A00086
:10230800080083120313A601A11F8B298C29932986
:10231800A009A109A00A0319A10AA601A60AA31FD8
:1023280096299729A029A209A309A20A0319A30A91
:102338000130A4002408A606A701A801200821044A
:102348000319A729A829DF29A501A50AB62901305B
:102358000310A00DA10DFF3E031DAC290130A40000
:102368002408A507A11FB929BA29AB2901300310F0
:10237800A70DA80DFF3E031DBB2921082302031D3D
:10238800C72920082202031CCA29CB29D2292008E0
:10239800A2022108031CA303A3022714013003107F
:1023A800A10CA00CFF3E031DD3290130A502031D7B
:1023B800DE29DF29BA2926080319E329E429E929AE
:1023C800A709A809A70A0319A80A2808A100270825
:1023D800A000080083120313A200220884006530BD
:1023E800831300020318F929FA29FB296B2A22080A
:1023F8008400DD3000020318022A032A442A220836
:102408008400643080026B2A4130A00022088400D6
:10241800200880006B2A6130A00022088400200870
:1024280080006B2A4230A000220884002008800027
:102438006B2A6230A00022088400200880006B2AE2
:102448004330A00022088400200880006B2A6330F3
:10245800A00022088400200880006B2A4430A000D5
:1024680022088400200880006B2A6430A00022081B
:102478008400200880006B2A2208840080016B2ACF
:10248800220884000008A000A1012108003A0319CD
:102498004E2A6B2A2008DD3A0319082A033A031941
:1024A8000F2A013A0319162A3F3A03191D2A013A3D
:1024B8000319242A033A03192B2A013A0319322A49
:1024C800073A0319392A1A3A0319402A6B2A0800CD
:1024D80083120313A20006122208A000043003107E
:1024E800A00CFF3E031D732A06082006F0392006BB
:1024F8008600861222030319822A832A892A023037
:102508002206031D882A892A942A0D308312031370
:10251800A100FB30A000A00B8F2AA10B8F2A9B2AB9
:10252800413083120313A000A00B982A9B2A831220
:1025380003138616F0302205A00020302006031D64
:10254800A62AA72AC02A06122208A00004300310CF
:10255800A00CFF3E031DAB2A06082006F039200612
:1025680086008612413083120313A000A00BBA2AFA
:10257800BD2A83120313861606120F302205A00007
:1025880006082006F0392006860086122203031961
:10259800CE2ACF2AD52A02302206031DD42AD52ACC
:1025A800E02A0D3083120313A100FB30A000A00B1A
:1025B800DB2AA10BDB2AE72A413083120313A00090
:1025C800A00BE42AE72A8312031386160800831255
:1025D8000313B0016708FF3EAD002D08B1000230BB
:1025E80031020318F82AF92AFA2A6E2B3108543EC8
:1025F800840083130008AD002D08B2006530320254
:102608000318072B082B1A2B3208AD00AE012D0832
:10261800A9002E08AA000A168A1513220A168A117A
:10262800013E83120313AF002F08B0076530320252
:10263800031C1F2B202B382BDD3032020318252BCF
:10264800262B382B32089C3EA900FF300318003097
:10265800AA000A168A1513220A168A11013E831245
:102668000313AD002D08B007DD303202031C3D2BEB
:102678003E2B482BFE3032020318432B442B482BA9
:102688000230AD002D08B007FE303206031D4D2B79
:102698004E2B602B3208AD00AE012D08A9002E0884
:1026A800AA000A168A1513220A168A11013E8312F5
:1026B8000313AF002F08B00715303002031C652B39
:1026C800662B672B6E2B3108AD002D08E600013014
:1026D800B102F32A080083120313B701B01F752B48
:1026E800762B832BAD09AE09AF09B009AD0A0319E2
:1026F800AE0A0319AF0A0319B00AB701B70AB41F23
:10270800862B872B962BB109B209B309B409B10AF4
:102718000319B20A0319B30A0319B40A0130B50040
:102728003508B7060030BB000030BA000030B900E9
:102738000030B80030082F042E042D040319A52BEF
:10274800A62BF32BB601B60AB62B0130B500031041
:10275800AD0DAE0DAF0DB00DB50BAB2B0130B50007
:102768003508B607B01FB92BBA2BA92B0130B50015
:102778000310B80DB90DBA0DBB0DB50BBC2B300845
:102788003402031DD12B2F083302031DD12B2E0831
:102798003202031DD12B2D083102031CD42BD52B5B
:1027A800E42B2D08B1022E08031C2E0FB2022F08AD
:1027B800031C2F0FB3023008031C300FB402381467
:1027C80001300310B00CAF0CAE0CAD0CFF3E031D76
:1027D800E52B0130B602031DF22BF32BBA2B370879
:1027E8000319F72BF82B032CB809B909BA09BB0947
:1027F800B80A0319B90A0319BA0A0319BB0A3B082C
:10280800B0003A08AF003908AE003808AD0008003B
:1028180083120313A400A52C200884008317211C0D
:1028280083130008031D192C1A2CB82CFE30A200A3
:10283800200884008317211C831322088000B82CE9
:102848006430A200200884008317211C8313220807
:102858008007B82CDD30A200200884008317211CD3
:10286800831322088000B82CDE30A20020088400E0
:102878008317211C831322088000B82CDF30A200A4
:10288800200884008317211C831322088000B82C99
:10289800E030A200200884008317211C831322083B
:1028A8008000B82CE130A200200884008317211C86
:1028B800831322088000B82CE230A200200884008C
:1028C8008317211C831322088000B82CE330A20050
:1028D800200884008317211C831322088000B82C49
:1028E800E430A200200884008317211C83132208E7
:1028F8008000B82C200884008317211C831300084B
:10290800A200A3012308003A03198B2CB82C220833
:10291800413A03192E2C033A0319422C013A0319A0
:10292800562C073A03196A2C253A0319382C033A0E
:1029380003194C2C013A0319602C073A0319742C1B
:10294800B82C2408A200A3012308003A0319AD2CCF
:10295800B82C2208613A03197E2C113A0319102C5D
:10296800043A0319242CB82C0800490883120313CD
:10297800C4004408A30002300A168A1576240A16F1
:102988008A11831603134A088400831300080A1661
:102998008A1545240A168A11013083120313C400CC
:1029A800440883160313C907323083120313A000A7
:1029B8000030A1000A168A1538210A168A1101303A
:1029C80083120313C400440883160313CA074A0872
:1029D800840083130008031DF22CF32CB92C00305B
:1029E80083120313A9000030A8000530A700DC30CB
:1029F800A6000A168A15C0200A168A110230831208
:102A08000313C400440883160313DB00192D0A16A8
:102A18008A15A9200A168A1183120313230822048F
:102A280021042004031D192D1C2D0A128A111C2DA6
:102A38000830C400440883160313DB00192D0A1656
:102A48008A152B200A168A11003083120313A80056
:102A58008830A900831603135F080A128A115220CE
:102A68000A168A11003083120313A9000030A80047
:102A78000330A700E830A6000A168A15C0200A16F7
:102A88008A11093083120313C40044088316031300
:102A9800DB00192D0A168A15A9200A168A11831235
:102AA80003132308220421042004031D5C2D5D2D3B
:102AB800192D4730C400440883160313DB00192D71
:102AC8000A168A15F2210A168A1183120313C40002
:102AD800440883160313DD007A2D03308312031391
:102AE800C400440883160313DB00192D5D08831204
:102AF8000313C400C5014508003A0319842D192D94
:102B08004408313A0319712D023A0319192D192D68
:102B18008316031362080A128A1152200A168A11B0
:102B280083120313A801A9018730AA008930AB00DA
:102B38008316031360080A128A1152200A168A1192
:102B480083120313A801A80AA9015D30AA008930DD
:102B5800AB008316031360080A128A1152200A1662
:102B68008A11063083120313C40044088316031322
:102B7800DB00192D0A168A15B5230A168A110A16BA
:102B88008A1551200A168A110A168A15CC200A16A7
:102B98008A11013083120313B1003130B0002D3097
:102BA800AF000030AE000A168A15A7220A168A114D
:102BB800003083120313BC00BD000A168A15B02129
:102BC8000A168A1183160313DB01C801B401D30165
:102BD800D701D73083120313C4004408A000A10111
:102BE800A10AD3300A168A1511250A168A11FF3050
:102BF80083120313C400440883160313D600DC01B0
:102C0800023083120313C400440883160313B5006B
:102C1800D901DA01D401D501D8010A128A11B32CDD
:102C280083160313CB0104304B02031C1C2E1D2EEC
:102C38001E2E5D2ECC0114304C02031C242E252E92
:102C4800262E542E4B0883120313C4004408A800F0
:102C5800831603134C0883120313C5004508A90003
:102C6800F830AA008930AB008316031360080A12F3
:102C78008A1152200A168A110A3083120313A000FF
:102C88000030A1000A168A1538210A168A11013067
:102C980083120313C400440883160313CC071F2EA2
:102CA800013083120313C400440883160313CB07AF
:102CB800172ECD0104304D02031C632E642E652EA1
:102CC800A42ECE0114304E02031C6B2E6C2E6D2EDA
:102CD8009B2E4D0883120313C4004408A8008316D2
:102CE80003134E0883120313C5004508A900F230E8
:102CF800AA008830AB008316031360080A128A11F1
:102D080052200A168A110A3083120313A0000030D9
:102D1800A1000A168A1538210A168A110130831271
:102D28000313C400440883160313CE07662E01302C
:102D380083120313C400440883160313CD075E2EC1
:102D4800DB01DB0A0A128A111C2DA801A80AA901B5
:102D58001E30AA008930AB008316031360080A12DC
:102D68008A1152200A168A11A030840090308312EA
:102D78000313C4000408C5001430C60044088400C6
:102D880083170008C700C40A45088400831347084E
:102D98008000C50AC60BC22E83160313C901A030D2
:102DA80083120313C400440883160313CA000A16C7
:102DB8008A11EB2C83120313C20039080A168A15EC
:102DC80004210A168A1183120313BA003A08C300B1
:102DD80043080319F02EF12E372F653043020318EC
:102DE800F62EF72E372F4308BA00BB013A08A90080
:102DF8003B08AA000A168A1513220A168A11033AF2
:102E0800031D072F082F0C2F013083120313C20252
:102E180083120313AD014208BA003A08AE00430812
:102E2800BB00BC013B08AF003C08B0004308BD0034
:102E3800BE013D08A9003E08AA000A168A151322F9
:102E48000A168A1183120313BF003F08B1000A1241
:102E58008A111A270A168A1125300A168A15452456
:102E68000A168A11FF2F65304302031C3C2F3D2FA1
:102E78008B2FDD3043020318422F432F8B2F433013
:102E88000A168A11EE210A168A11831203134308BF
:102E9800BA00BB013A08A9003B08AA000A168A151D
:102EA80013220A168A11033A031D5B2F5C2F602F29
:102EB800013083120313C20283120313AD014208C7
:102EC800BA003A08AE004308BB00BC013B08AF009B
:102ED8003C08B0004308BD00BE013D08A9003E08FB
:102EE800AA000A168A1513220A168A1183120313D6
:102EF800BF003F08B1000A128A111A270A168A1160
:102F080073300A168A1545240A168A11FF2FDD30F8
:102F18004302031C902F912FC82FFE304302031841
:102F2800962F972FC82F43300A168A11EE210A16BA
:102F38008A11831203134208BA003A08A30000302A
:102F48000A168A1576240A168A118312031343086F
:102F5800DF390A168A1545240A168A1183120313C3
:102F6800C31AB72FB82FBD2F2B30C0000030C100B7
:102F7800C12F2D30C0000030C10040080A168A1544
:102F880045240A168A11FF2FFE304306031DCD2F54
:102F9800CE2FFF2F43300A168A11EE210A168A1106
:102FA80083120313AD014208BA003A08AE00430881
:102FB800BB00BC013B08AF003C08B0004308BD00A3
:102FC800BE013D08A9003E08AA000A168A15132268
:102FD8000A168A1183120313BF003F08B1000A12B0
:102FE8008A111A270A168A1125300A168A154524C5
:102FF8000A168A11FF2F0800FF1B0A2883137F185F
:1030080083170008840A0319FF0A08007F087F391C
:0C3018008A000408840A0319FF0A8200E1
:1030380054300800123008007B08080002340234BB
:10304800F601F701080083120313670808007A10D5
:10305800FA107A11FA1108008312031385118515E5
:10306800080083160313111B3A283B28352808004B
:103078000130F6070318F70A0030F7070800013097
:103088000A168A116C220A168A1508007708831214
:103098000313A1007608A000080083120313880117
:1030A800F030831603138800080064008001840A46
:1030B80004060319003404065A2883120313A000D7
:1030C8002008543E84008313000808008316031365
:1030D800111583128C1D712872286D288C11080017
:1030E80083160313111483128C1D7B287C287728E0
:1030F8008C11080007340A3401340D3404341034B8
:103108000034003400340034831203132008A20072
:103118002208D4002108A2002208D5000800123095
:10312800831203136702031C9A289C2801309D28E8
:10313800003008000330831203136602031CA5281D
:10314800A628A8280130E6020800831203134B08BA
:10315800A3004A08A2004908A1004808A0000800E6
:1031680083120313A0002008930083160313141876
:10317800BE28BF28B9280800831203132908CB00EA
:103188002808CA002708C9002608C8001014080023
:10319800831203139010303090041015FD308F0007
:1031A8008F308E001013831603130C140B178B1714
:1031B80008007E088A007F0882000A168A15DD202A
:1031C8000A168A158000840A04087D06031900344B
:1031D800FF0A0319FE0AE128831203132108A3003A
:1031E8002008A200A20EA30EF030A30522080F3972
:1031F800A304F030A2052208A0002308A1000800BB
:1032080083120313A2000A168A1520200A168A15AB
:103218008312031322070A168A1561200A168A15D3
:1032280083120313A1002108A300230808008B13AD
:10323800831203130C1C2129222930298316031316
:103248000C1C272928293029831203130C100A166D
:103258008A15FD220A168A158B1775088A00740EBE
:103268008300FE0E7E0E09004C29073083120313DB
:10327800A3007C30A200A20B3F29A30B3F2900002A
:10328800013083120313A0020030031CA103A10222
:103298008312031320082104031D532954293929B3
:1032A8000800831203135508A200A3012208A400F2
:1032B8002308A50008300310A40DA50DFF3E031D2B
:1032C8005F295408A200A3012208A4070318A50A2D
:1032D8002308A5072508A1002408A00008008312D8
:1032E8000313A1008B132108831203178D00831287
:1032F80003132008831203178C00831603178C13FB
:103308000C1555308D00AA308D008C148C188D2921
:103318008E298A290C118B17080083120313A80021
:103328000A30A0000030A100280884008313000898
:10333800A200840A0008A3000A168A1580260A1625
:103348008A15831203132808840020088313800039
:10335800840A2108800008000A168A15BF250A1663
:103368008A15831203133D08A5003C08A4000A1619
:103378008A153B260A168A150A168A156A200A161D
:103388008A15013083120313A0000030A1000A1629
:103398008A1538210A168A15080083120313AB0010
:1033A8002B08A900AA012908A0002A08A1000A16CA
:1033B8008A15F0200A168A15831203132108AD0016
:1033C8002008AC002808A9002908A0002C08270715
:1033D8000A168A1573210A168A1508008312031320
:1033E800A8010A168A150E270A168A1583120313CE
:1033F800A7002708A90029080319032A042A0D2A67
:103408005008031D082A092A0D2A2908A700270899
:10341800A8002908A7002708D00028080800831258
:103428000313AC012E2A0A30A0000030A1002A089C
:10343800A3002908A2000A168A1185210A168A15EE
:10344800831203132108AA002008A9000130AB0049
:103458002B08AC0729082A04031D332A342A172A03
:103468002C0808004D3475346E3464346F342034BD
:1034780061346F34203473346534753420346334E4
:103488006F346D3461346E3464346F3431343234B3
:1034980033344134343435343634423437343834C0
:1034A800393443342A3430342334443483120313F4
:1034B800A1008030A0002008A300A201782A0511ED
:1034C800210823050319692A6A2A6C2A05146D2A1A
:1034D8000510851C702A712A752A2308A000200867
:1034E800A20405150310A30C2308031D7C2A7D2ABA
:1034F800632A05112208080083120313A401A501F9
:10350800201C872A882A8E2A2208A4070318A50ABD
:103518002308A50701300310A20DA30DFF3E031DCC
:103528008F2A01300310A10CA00CFF3E031D962A20
:1035380020082104031DA12AA22A842A2508A10003
:103548002408A000080083160313871507168312A2
:1035580003131408F039083894003108A300300820
:10356800A2002F08A1002E08A0000030A7004C30B0
:10357800A6004B30A5004030A4000A168A111D2170
:103588000A168A15831203132008FF3E83160313B5
:1035980093009417831203139416080083120313DD
:1035A800B400123067020318DA2ADB2AF72A34300B
:1035B800A0000030A10070300A168A110C240A16E7
:1035C8008A15831203133408B3006708543E840035
:1035D8003308831380000130B3003308E707670816
:1035E800543E840080010A168A11EB220A168A15B5
:1035F8000800FD30831203138F008F308E004B08B4
:103608004A044904480403190A2B0B2B282B0130C0
:10361800F0000030F1000030F2000030F3007008D4
:10362800C8027108031C710F1A2B1B2BC9027208E0
:10363800031C720F202B212BCA027308031C730F63
:10364800262B272BCB02292B1010080011308312B0
:10365800031366020318312B322B532B6708FF3EE6
:10366800A000FF3003180030A1002108803A803CF8
:10367800031D402B200866020318432B442B4B2BB9
:10368800013083120313A0002008E607572B83128A
:1036980003136708FF3EA0002008E600572B1130EF
:1036A800A0002008E600080083120313A2006F2B75
:1036B8007A080139852B7A0C0139852B7A0CA00000
:1036C800200C0139852B7A0CA000A00C200C0139A4
:1036D800852B0030852B2208A000A1012108003A83
:1036E8000319772B6D2B2008413A03195C2B033AF9
:1036F80003195F2B013A0319622B073A0319672B49
:103708006D2B080083120313AB0026088400831373
:103718000008A000840A0008A1000A30A2000030B6
:10372800A3000A168A1580220A168A158312031323
:103738002B082007A7000030031801302107A80034
:103748002708D03EA90028080318013EFF3EAA001A
:1037580026088400290883138000840A2A08800028
:1037680008008316031789018316031306128612AD
:10377800061086100611861183120313861605306B
:10378800A0000030A1000A168A1538210A168A15E9
:1037980028300A168A116C220A168A150C300A1665
:1037A8008A116C220A168A1501300A168A116C22AF
:1037B8000A168A1502300A168A116C220A168A1508
:1037C800080083120313B400123067020318ED2BAC
:1037D800EE2B0F2C34080319F22BF32B0F2C34305B
:1037E800A0000030A10061300A168A110C240A16C4
:1037F8008A15831203133408B3006708543E840003
:103808003308831380000130B3003308E7076708E3
:10381800543E840080010A168A11EB220A168A1582
:10382800080083120313B4001230670203181D2C1A
:103838001E2C3F2C34080319222C232C3F2C343007
:10384800A0000030A10074300A168A110C240A1650
:103858008A15831203133408B3006708543E8400A2
:103868003308831380000130B3003308E707670883
:10387800543E840080010A168A11EB220A168A1522
:10388800080083120313A10006162108A0000430C3
:103898000310A00CFF3E031D4C2C06082006F0392F
:1038A800200686008612413083120313A000A00B65
:1038B8005B2C5E2C83120313861606160F30210527
:1038C800A00006082006F03920068600861241303E
:1038D80083120313A000A00B6F2C722C8312031306
:1038E8008616080083120313A600A7018A2C40300D
:1038F800A4002408A7009D2C1430A4002408A700C5
:103908009D2C5430A4002408A7009D2C2608A40050
:10391800A5012508003A0319922C9D2C2408013A88
:1039280003197B2C033A0319802C013A0319852CBF
:103938009D2C230827077F39803E0A168A116C229E
:103948000A168A150800831203132708A900AA017A
:103958002908A0002A08A1000A168A15F0200A16CC
:103968008A15831203132108AC002008AB00AD01AF
:103978002D082807A9002908840083130008AA0035
:103988002A08A0002B082D070A168A1573210A1683
:103998008A15013083120313A9002908AD071030D6
:1039A8002D02031CD82CD92CBC2C0800831203131D
:1039B800A200FA2C7A1CE12CE32C7A14E42C7A105D
:1039C800102DFA1CE82CEA2CFA14EB2CFA10102D06
:1039D8007A1DEF2CF12C7A15F22C7A11102DFA1D84
:1039E800F62CF82CFA15F92CFA11102D2208A00043
:1039F800A1012108003A0319022D102D2008413A8F
:103A08000319DE2C033A0319E52C013A0319EC2CAF
:103A1800073A0319F32C102D080083120313A3008F
:103A28002308A2002208D3002008A2002208D200FE
:103A38002108A2002208D1008511831603178811D6
:103A480083160313851183120313051183160317B5
:103A58000811831603130511831203130510831627
:103A680003170810831603130510831203130508A0
:103A78008316031788108316031385148312031300
:103A88000511051085150800831203135108FF3E20
:103A9800A4002408A8000A168A1530200A168A15D8
:103AA80083120313A901772D5208A4002908A40240
:103AB80028082407A50025088400831300080A168F
:103AC8008A155A220A168A1583120313A600290892
:103AD8005307A700270884002608831380000130B5
:103AE800A4002408A90751082902031C7C2D7D2D58
:103AF800582D0A168A1530200A168A1508008312CE
:103B080003132908AC002C08AD002908AC002C08C8
:103B1800A30028080A168A1576240A168A15AE2DD7
:103B28002B08FF002A0884000A168A1500200A16A6
:103B38008A150A168A1545240A168A150130831231
:103B48000313AA070318AB0A0030AB070130AC0017
:103B58002C08AD07831203132B08FF002A088400E2
:103B68000A168A1500200A168A15003A031DBD2D6B
:103B7800BE2D942D08000A168A1574200A168A1577
:103B8800013083120313A0000030A1000A168A1521
:103B980038210A168A15C0300A168A15B4200A1662
:103BA8008A150A168A1535200A168A1501308312D5
:103BB8000313A0000030A1000A168A1538210A163E
:103BC8008A1560300A168A15B4200A168A150A164C
:103BD8008A1535200A168A15013083120313A000AE
:103BE8000030A1000A168A1538210A168A1508001D
:103BF80083120313AB01A30100300A168A15762439
:103C08000A168A15272E0A302C0603190C2E0D2E9B
:103C1800142E2C080A168A1545240A168A151F2EF2
:103C2800A3010130AA002A08AB072B080A168A1537
:103C380076240A168A15013083120313A80703187D
:103C4800A90A0030A907831203132908FF002808CE
:103C580084000A168A1500200A168A15AA002A085E
:103C6800AC002C08031D392E3A2E072E08008312AB
:103C780003132508A7002408A60004300310A70C86
:103C8800A60CFF3E031D422E26080A168A15B420EC
:103C98000A168A150A168A1535200A168A15013059
:103CA80083120313A0000030A1000A168A153821D8
:103CB8000A168A15831203132408A600033003107A
:103CC800A60DFF3E031D632E0310260D0A168A1546
:103CD800B4200A168A150A168A1535200A168A1576
:103CE800013083120313A0000030A1000A168A15C0
:103CF80038210A168A15080083120313A601A701A2
:103D0800200821040319892E8A2EC12EA501A50A8F
:103D1800982E01300310A00DA10DFF3E031D8E2E1D
:103D28000130A4002408A507A11F9B2E9C2E8D2ED0
:103D380001300310A60DA70DFF3E031D9D2E21087F
:103D48002302031DA92E20082202031CAC2EAD2E2F
:103D5800B42E2008A2022108031CA303A3022614E0
:103D680001300310A10CA00CFF3E031DB52E01303D
:103D7800A502031DC02EC12E9C2E2708A1002608CF
:103D8800A0000800003083120313AC000030AB0021
:103D98000030AA000030A900201CD32ED42EEB2E10
:103DA8002408A907250803110318013E0319DD2E6D
:103DB800AA07260803110318013E0319E42EAB07CE
:103DC800270803110318013E0319EB2EAC07013035
:103DD800A8000310A40DA50DA60DA70DA80BED2E88
:103DE80001300310A30CA20CA10CA00CFF3E031D74
:103DF800F52E2308220421042004031D042F052F77
:103E0800D02E2C08A3002B08A2002A08A1002908FC
:103E1800A000080083120313A401A50104302502A1
:103E2800031C172F182F192F582F0130A000250A0F
:103E38001F2F0310A00DFF3E031D1D2F2008880013
:103E4800A6011030A000260A2B2F0310A00DFF3E5C
:103E5800031D292F200808050319332F342F492F54
:103E68002508A00002300310A00DFF3E031D372FC8
:103E7800A4302007A10026082107A20022088400F8
:103E880083170008A3002308A4000130A00020081D
:103E9800A60704302602031C522F532F252F01306A
:103EA800A0002008A507122F240808008312031376
:103EB80067080319602F612FA12F03306702031CC5
:103EC800662F672F692F0130E7026708543E840088
:103ED800DD3083130002031C722F732F9A2F67089B
:103EE800543E0A168A11EE210A168A158312031304
:103EF8006708543E840083130008DF390A168A15C0
:103F0800DA240A168A15831203136708543E8400BC
:103F180083130008B300B4013308A0003408A100DB
:103F280061300A168A110C240A168A1583120313A3
:103F38006708543E8400831380010A168A11EB2215
:103F48000A168A15080083120313A300DD2F200820
:103F58008400831300080239FF2F2008840083138C
:103F680000080139FF2F200884008313000808394E
:103F7800FF2F20088400831300080439FF2F20082E
:103F88008400831300082039FF2F2008840083133E
:103F980000081039FF2F2008840083130008803997
:103FA800FF2F20088400831300084039FF2F0030BA
:103FB800FF2F2308A100A2012208003A0319E52FC8
:103FC800DB2F2108413A0319AB2F033A0319B72F06
:103FD800013A0319C32F073A0319CF2F253A0319BA
:103FE800B12F033A0319BD2F013A0319C92F073A14
:083FF8000319D52FDB2F08008F
:04400E00C220FF3F8E
:00000001FF
