:020000040000FA
:100000000A128A110C280234FE00030EF4000A08BA
:10001000F5000A168A15F42B0A128A110F28831785
:10002000EC30FD001B30FE004F30FF00E23084005A
:100030000A168A15A6230A128A118313C430FD00FA
:100040001C30FE00F530FF00A03084000A168A152F
:10005000A6230A128A110A168A150F230A128A1178
:10006000E6000A168A1510230A128A11E7000A12FE
:100070008A1103200A128A11FB0083160317EC0170
:10008000ED014830840066300A168A1146220A12B1
:100090008A11F601F701F801F901FA0183010A1248
:1000A0008A118B2DFF0000308A007F0882075728B5
:1000B0000A168A159B2F0A168A15FC2D0A168A1114
:1000C000F72A0A168A15292B0A168A15092F0A16E5
:1000D0008A11332B0A168A111B2F0A168A15CD2F67
:1000E0004B0883120313C4004408A30002300A160D
:1000F0008A156A270A128A11831603174C0884008E
:10010000831700080A168A1539270A128A11013046
:1001100083120313C400440883160317CB0732303D
:1001200083120313A0000030A1000A128A150020D8
:100130000A128A11013083120313C4004408831683
:100140000317CC074C08840083170008031DA92857
:10015000AA287028003083120313B0000030AF00CB
:100160000530AE00DC30AD000A168A1585230A1270
:100170008A11023083120313C40044088316031744
:10018000E000D0280A168A157A230A128A118312EF
:1001900003132308220421042004031DD028D3289C
:1001A0000A128A15602E0830C4004408831603170B
:1001B000E000D0280A168A1518230A128A11003086
:1001C00083120313A8009030A90083160317630855
:1001D0000A128A1152200A128A1100308312031364
:1001E000B0000030AF000330AE00E830AD000A16BA
:1001F0008A1585230A128A11093083120313C40059
:10020000440883160317E000D0280A168A157A23BB
:100210000A128A11831203132308220421042004E2
:10022000031D13291429D0284730C400440883161D
:100230000317E000D0280A168A158D240A128A11A5
:1002400083120313C400440883160317E1003829FE
:10025000033083120313C400440883160317E0001D
:10026000D0284830C400440883160317E000D02883
:10027000610883120313C400C5014508003A03193D
:100280004229D0284408313A03192829033A03198E
:100290003129013A0319D028D0288316031766089C
:1002A0000A128A1152200A128A1153308312031340
:1002B000A8009030A9008316031763080A128A1158
:1002C00052200A128A11493083120313C4004408D1
:1002D00083160317E0000A168A158D240A128A1164
:1002E00083120313C400440883160317E100AE2AE7
:1002F0003030A0000030A10083160317610883127C
:100300000313C400C5014408A2004508A3000A164F
:100310008A114D250A128A11831203132008C60080
:100320004608A700D530C7004708A8000A300A16BB
:100330008A1519250A128A118316031755080A16F9
:100340008A1526260A128A11303083120313A00060
:100350000030A10083160317610883120313C40041
:10036000C5014408A2004508A3000A168A114D25BC
:100370000A128A11831203132008C6004608A70038
:10038000A430C7004708A8008316031768080A129C
:100390008A1152200A128A11A43083120313C40056
:1003A000440883160317B600360884008317000A32
:1003B000031DDB29DC29032A303083120313A0003C
:1003C0000030A10083160317610883120313C400D1
:1003D000C5014408A2004508A3000A168A114D254C
:1003E0000A128A11831203132008C6004608A700C8
:1003F0008316031769080A128A1152200A128A11F9
:1004000083160317A401A43083120313C400440805
:1004100083160317DD00982A5D088400801F112AC7
:10042000122A262A5D08840000080A168A15632508
:100430000A128A118B2ADF30C400831603175D0865
:10044000840083120313440880054C2A5D0884004D
:10045000000883120313C400C5014508003A0319BC
:10046000322A4C2A4408413A03191B2A033A031939
:100470001B2A013A03191B2A073A03191B2A253A9A
:1004800003191B2A033A03191B2A013A03191B2AD1
:10049000073A03191B2A4C2A831603175D088400A8
:1004A00000080A168A114E220A128A1183160317AF
:1004B0005D088400831700080A168A15AC260A1204
:1004C0008A11003A031D652A662A712A83160317CA
:1004D0005D088400203083170004B7000030B800A6
:1004E000852A831603175D0884008317000883128A
:1004F0000313C400C501440883160317B700831211
:100500000313450883160317B80037080A168A151F
:10051000D1240A128A110A128A1177240A128A1126
:10052000013083120313C400440883160317DD0748
:100530005D08840083170008031D9F2AA02A0C2A47
:100540000A168A1529230A128A11103083120313FE
:10055000C400440883160317E000D0286108831202
:100560000313C400C5014508003A0319B82AD0286E
:1005700044082A3A0319D3281A3A03197829013A68
:1005800003197829033A03197829013A03197829BC
:10059000073A03197829013A03197829033A03190C
:1005A0007829013A031978290F3A03197829013A71
:1005B00003197829D0288316031766080A128A11AE
:1005C00052200A128A1183120313A801A901D33001
:1005D000AA009130AB008316031764080A128A112F
:1005E00052200A128A1183120313A801A80AA90132
:1005F000A930AA009130AB008316031764080A12D1
:100600008A1152200A128A11063083120313C40081
:10061000440883160317E000D028831603176108E7
:100620000A168A114E220A128A1108308312031305
:10063000C4004408A30003300A168A156A270A1268
:100640008A1142300A168A15AC260A128A11003A1B
:10065000031D2B2B2C2B332B2D3083160317C3009C
:100660000030C400392B2B3083160317C300003031
:10067000C40043080A168A1539270A128A11122C57
:100680008316031761080A168A114E220A128A116C
:100690000C3083120313C4004408A30003300A166D
:1006A0008A156A270A128A1143300A168A15AC265F
:1006B0000A128A11003A031D5E2B5F2B662B2D3028
:1006C00083160317C5000030C6006C2B2B30831631
:1006D0000317C5000030C60045080A168A153927D9
:1006E0000A128A11122C8316031761080A168A113E
:1006F0004E220A128A11103083120313C4004408D8
:10070000A30003300A168A156A270A128A11443098
:100710000A168A15AC260A128A11003A031D912B7B
:10072000922B992B2D3083160317C7000030C80079
:100730009F2B2B3083160317C7000030C8004708D3
:100740000A168A1539270A128A11122C0A30C40097
:10075000440883160317E000122C61088312031368
:10076000C400C5014508003A0319B72B122C4408F0
:10077000233A0319A62B093A0A128A150319D32F13
:100780000A128A116B3A0319742C033A03190D2BC0
:10079000013A0319402B073A0319732B122C0A163E
:1007A0008A11F3240A128A1183120313C400440825
:1007B00083160317D50066080A128A1152200A12FE
:1007C0008A1183120313A801A901E830AA0091300D
:1007D000AB008316031764080A128A1152200A120A
:1007E0008A110E3083120313C400440883160317C2
:1007F000E000122C0A168A158D240A128A1183121F
:100800000313C400440883160317E1000A128A1573
:100810002B280A168A1564230A128A11003A031932
:10082000122C152C0A128A15602E831603176108E4
:100830000A168A114E220A128A11831603176108BA
:100840000A168A15AC260A128A11003A031D292CB1
:100850002A2C322C2030831603176104C900003083
:10086000CA00432C83160317610883120313C400C4
:10087000C501440883160317C900831203134508F2
:1008800083160317CA0049080A168A15D1240A12CA
:100890008A110A128A11A52A0A168A157E260A12B8
:1008A0008A11492C0A168A156F230A128A11492CBB
:1008B0000A168A1514230A128A11023A031D612CA2
:1008C000622C652C0A128A1128290A168A15D52548
:1008D0000A128A11492C4A3083120313C4004408B7
:1008E00083160317E000122C0A128A15E22F8312D6
:1008F0000313AE01B201B0016608A9002908AF00D8
:10090000A30100300A168A156A270A128A11831277
:1009100003132E0803198D2C8E2C9B2C20300A16C5
:100920008A1539270A128A11013083120313A9008C
:100930002908B007842D2F08543E84008313000833
:10094000A9002908B1000130A9002908AF07310822
:10095000031DAB2CAC2CAF2CAE01AE0A842DB11F05
:10096000B22CB32C622D31087F39A9002908B200BE
:1009700064303202031CBD2CBE2CF22C31300A161E
:100980008A1539270A128A11013083120313A9002C
:100990002908B0076430A0000030A1003208A90087
:1009A000AA012908A2002A08A3000A168A114D25C7
:1009B0000A128A11831203132008AB002B08B2001D
:1009C0000A3032020318E52CE62CF22C30300A16DD
:1009D0008A1539270A128A11013083120313A900DC
:1009E0002908B0070A303202031CF72CF82C2D2DF1
:1009F0000A30A0000030A1003208A900AA0129088D
:100A0000A2002A08A3000A168A11A8250A128A1130
:100A1000831203132008303E0A168A1539270A125A
:100A20008A11013083120313A9002908B0070A3084
:100A3000A0000030A1003208A900AA012908A200E4
:100A40002A08A3000A168A114D250A128A11831258
:100A500003132008AB002B08B2003208303E0A1600
:100A60008A1539270A128A11013083120313A9004B
:100A70002908B00773300A168A1539270A128A1115
:100A8000942C3108DF390A168A1539270A128A117F
:100A9000013083120313A9002908B007B11A512DA0
:100AA000522D572D2B30AC000030AD005B2D2D307A
:100AB000AC000030AD002C080A168A1539270A123E
:100AC0008A11942C3108A900AA012A08003A0319B6
:100AD0006A2D842D2908413A0319412D033A03193F
:100AE000412D013A0319412D073A0319412D253AA9
:100AF0000319412D033A0319412D013A0319412DE0
:100B0000073A0319412D842D15303002031C892D1D
:100B10008A2D872C08000A168A1509270A128A11BD
:100B20000A168A153E230A128A110A168A1591237B
:100B30000A128A1183160317E001D501B401D70107
:100B4000DB01DB3083120313C4004408A000A101C1
:100B5000A10AD7300A168A1185220A128A11FF309B
:100B600083120313C400440883160317D800D60168
:100B7000023083120313C400440883160317B50020
:100B8000DE01DF01D901DA01DC010A128A15ED2D3F
:100B900083160317CD0104304D02031CD02DD12D37
:100BA000D22D112ECE0114304E02031CD82DD92D7A
:100BB000DA2D082E4D0883120313C4004408A80040
:100BC000831603174E0883120313C5004508A900B6
:100BD0004430AA009230AB008316031764080A124F
:100BE0008A1152200A128A110A3083120313A000BC
:100BF0000030A1000A128A1500200A128A11013061
:100C000083120313C400440883160317CE07D32DA1
:100C1000013083120313C400440883160317CD0761
:100C2000CB2DCF0104304F02031C172E182E192E86
:100C3000582ED00114305002031C1F2E202E212EBE
:100C40004F2E4F0883120313C4004408A8008316D4
:100C50000317500883120313C5004508A9003E304E
:100C6000AA009130AB008316031764080A128A1198
:100C700052200A128A110A3083120313A000003096
:100C8000A1000A128A1500200A128A11013083126B
:100C90000313C400440883160317D0071A2E01302B
:100CA00083120313C400440883160317CF07122EC0
:100CB000E001E00A0A128A15602EA801A80AA9011B
:100CC0006A30AA009130AB008316031764080A1239
:100CD0008A1152200A128A1190308400A0308312A7
:100CE0000313C4000408C5001430C600440884007F
:100CF00083130008C700C40A450884008317470807
:100D00008000C50AC60B762E83160317CB019030E0
:100D100083120313C400440883160317CC000A127D
:100D20008A11A2280330C4004408A800A901BE30DB
:100D3000AA009130AB008316031764080A128A11C7
:100D400052200A128A11043083120313C40044088B
:100D5000A30003300A168A156A270A128A11413045
:100D60000A168A15AC260A128A11003A031DB92EFA
:100D7000BA2EC12E2D3083160317B9000030BA00E9
:100D8000C72E2B3083160317B9000030BA0039087C
:100D90000A168A1539270A128A110830831203139A
:100DA000C4004408A30003300A168A156A270A12F1
:100DB0008A1142300A168A15AC260A128A11003AA4
:100DC000031DE32EE42EEB2E2D3083160317BB00FC
:100DD0000030BC00F12E2B3083160317BB0000300F
:100DE000BC003B080A168A1539270A128A110C30F2
:100DF00083120313C4004408A30003300A168A15A3
:100E00006A270A128A1143300A168A15AC260A127A
:100E10008A11003A031D0D2F0E2F152F2D3083162A
:100E20000317BD000030BE001B2F2B3083160317A5
:100E3000BD000030BE003D080A168A1539270A1287
:100E40008A11103083120313C4004408A300033036
:100E50000A168A156A270A128A1144300A168A1558
:100E6000AC260A128A11003A031D372F382F3F2F64
:100E70002D3083160317BF000030C000452F2B30E4
:100E800083160317BF000030C0003F080A168A15FA
:100E900039270A128A11073083120313C400440849
:100EA00083160317E0000A128A15602E0A168A15A7
:100EB0008D240A128A1183120313C4004408831676
:100EC0000317E1000A128A11AD2B8316031761087C
:100ED0000A168A114E220A128A1104308312031351
:100EE000C4004408A30003300A168A156A270A12B0
:100EF0008A1141300A168A15AC260A128A11003A64
:100F0000031D832F842F8B2F2D3083160317C100D1
:100F10000030C200912F2B3083160317C100003020
:100F2000C20041080A168A1539270A128A11532F5E
:100F300083120313A300D02F20088400831700140A
:100F4000F22FFE30A10020088400210883178005BD
:100F5000F22F2008840083178014F22FFD30A100A7
:100F600020088400210883178005F22F20088400C0
:100F700083170015F22FFB30A10020088400210800
:100F800083178005F22F2008840083178015F22F25
:100F9000F730A10020088400210883178005F22F74
:100FA0002308A100A2012208003A0319D82FF22F2A
:100FB0002108413A03199C2F033A0319A92F013A3A
:100FC0000319B62F073A0319C32F253A0319A12F86
:100FD000033A0319AE2F013A0319BB2F073A03193D
:100FE000C82FF22F08008312031367087B0203182F
:100FF000FA2FFB2FFF2F0130A0002008FB0708006D
:101000001428073083120313A3007C30A200A20B24
:101010000728A30B07280000013083120313A00246
:101020000030031CA103A102831203132008210432
:10103000031D1B281C28012808002930C40044086F
:1010400083160317E000602E5A30C400440883164C
:101050000317E000602E610883120313C400C5016A
:101060004508003A03193528602E4408233A03192D
:101070001A2C093A0319EE2F1A3A03191D28043ABB
:101080000A128A110319522C0A128A15023A0319FC
:10109000F12F0F3A03192428783A0A128A110319FA
:1010A000092C0A128A15033A0319F42F013A03197D
:1010B000F42F073A0319F42F602E0A128A117724AD
:1010C0000A128A150A128A11F12B0330C40044084F
:1010D000A800A9013C30AA009230AB008316031788
:1010E00064080A128A1152200A128A1503308312E8
:1010F0000313C4004408AD00AE01AE0A0A168A15F7
:1011000014230A128A15FE3E83120313AF00FF3028
:1011100003180030B0000230C5004508B100831646
:10112000031765080A128A1152200A128A15033021
:1011300083120313C4004408AD000430C500450801
:10114000AE000A168A150B230A128A15FE3E831278
:101150000313AF00FF3003180030B0000230C600A8
:101160004608B1008316031765080A128A11522037
:101170000A128A150B3083120313C4004408831625
:101180000317E000602E4630C4004408831603179E
:10119000E000D801D80A602E0330831603175806E2
:1011A000031DD328D428852902305C060319D928C9
:1011B000DA28852983120313A801A9017F30AA0028
:1011C0009130AB008316031764080A128A1152206B
:1011D0000A128A15FF3083120313C4004408B900B1
:1011E00001300A168A1190260A128A1583120313F7
:1011F000B90109300A168A1190260A128A1583123B
:101200000313B901B90A0E300A168A1190260A1280
:101210008A15023083120313C4004408A800A901F0
:101220004030AA009130AB008316031764080A12FD
:101230008A1152200A128A15023083120313C40045
:101240004408AD000430C5004508AE000A168A15F2
:1012500014230A128A15FE3E83120313AF00FF30D7
:1012600003180030B0000230C6004608B1008316F3
:10127000031765080A128A1152200A128A150230D1
:1012800083120313C4004408AD00AE01AE0A0A166F
:101290008A150D230A128A15FF3E83120313AF002D
:1012A000FF3003180030B0000230C5004508B1001F
:1012B0008316031765080A128A1152200A128A152A
:1012C000023083120313C4004408AD000B30C50084
:1012D0004508AE000A168A1530230A128A158312B1
:1012E00003132008013EAF0021080318013E003E11
:1012F000B0000530C6004608B10083160317650824
:101300000A128A1152200A128A15831603175808E6
:10131000031D8B298C299A29103083120313C400D2
:10132000440883160317E00066080A128A11522047
:101330000A128A150A168A158D240A128A15831232
:101340000313C400440883160317E100C829831659
:101350000317DC01DC0A602E0230C4004408831647
:101360000317DC00602E83160317DC01602E0230A9
:10137000831603175C06031DBE29BF29602E0330A8
:1013800083120313C400440883160317DC00602E85
:10139000610883120313C400C5014508003A03190C
:1013A000D229602E4408233A0319A729133A0319B6
:1013B000B329013A0319B729043A0319AC29602E5D
:1013C0000A168A158D240A128A1583120313C40083
:1013D000440883160317E10030306102031CF12931
:1013E000F2291D2A3A3061020318F729F8291D2A2B
:1013F000DE3083120313C4004408A60083160317CB
:1014000061080A168A15DA260A128A150030831630
:1014100003175F02793003195E02031C102A112A98
:10142000152A7830DE000030DF00293083120313E4
:10143000C400440883160317E0002A306106031D28
:10144000222A232A312ADE300A168A154D240A124E
:101450008A15293083120313C40044088316031726
:10146000E00023306106031D362A372A602E2A3019
:1014700083120313C400440883160317E000602E90
:101480000230C4004408A800A9012730AA00923005
:10149000AB008316031764080A128A1152200A123D
:1014A0008A15023083120313C4004408AD000F30C4
:1014B000C5004508AE00831603175F0883120313A7
:1014C000B000831603175E0883120313AF000330C6
:1014D000C6004608B1008316031765080A128A1170
:1014E00052200A128A15283083120313C4004408BC
:1014F00083160317E000602E831603175E080A1692
:101500008A1563250A128A158316031766080A12BC
:101510008A1152200A128A150A128A11492C0A16B7
:101520008A158D240A128A1583120313C4004408F5
:1015300083160317E10030306102031CA02AA12AA0
:10154000DE2A3A3061020318A62AA72ADE2AD930F9
:1015500083120313C4004408A6008316031761080E
:101560000A168A15DA260A128A15273083160317F7
:101570005A02113003195902031CBF2AC02AC42A77
:101580001030D9002730DA00353083120313C4003D
:10159000440883160317E000602E0A128A11A02A5D
:1015A0003630C400440883160317E000602ED9309B
:1015B0000A168A154D240A128A15C42A6108831254
:1015C0000313C400C5014508003A0319E82A602E38
:1015D0004408233A0319D02A093A0319D72A6B3A47
:1015E0000319CD2A033A0319CD2A013A0319CD2A4A
:1015F000073A0319CD2A602E8316031766080A12CC
:101600008A1152200A128A1583120313A801A90114
:101610002B30AA009130AB008316031764080A121E
:101620008A1152200A128A1583120313AD010F305A
:10163000C4004408AE00831603175A08831203132C
:10164000B00083160317590883120313AF00053047
:10165000C5004508B1008316031765080A128A11F0
:1016600052200A128A15023083120313C400440860
:10167000A800A901FD30AA009130AB008316031722
:1016800064080A128A1152200A128A153430831211
:101690000313C400440883160317E000602EF230E1
:1016A000A8009030A9008316031763080A128A1154
:1016B00052200A128A150A168A158D240A128A15D2
:1016C00083120313C400440883160317E100752B2B
:1016D0004B30C400440883160317E000602E0A163E
:1016E0008A1529230A128A15C42A61088312031352
:1016F000C400C5014508003A03197F2B602E440839
:10170000233A0319682B093A03196F2B602E8316AD
:10171000031766080A128A1152200A128A15A43089
:1017200083120313A8009030A900831603176308DF
:101730000A128A1152200A128A154C30831203139E
:10174000C400440883160317E0000A168A158D2486
:101750000A128A1583120313C40044088316031760
:10176000E1001D2C3030A0000030A10083160317CB
:10177000610883120313C400C5014408A200450890
:10178000A3000A168A114D250A128A158312031323
:101790002008C6004608A7008316031755088312C1
:1017A0000313C7004708A8000A300A168A156C24DC
:1017B0000A128A15303083120313A0000030A100F2
:1017C00083160317610883120313C400C50144087C
:1017D000A2004508A3000A168A114D250A128A158F
:1017E000831203132008C6004608A7000A168A15AC
:1017F00009230A128A15023E83120313C700470801
:10180000A8008316031767080A128A1152200A12C9
:101810008A154D3083120313C4004408831603173E
:10182000E000602E8316031766080A128A11522000
:101830000A128A150A128A116B2C6108831203138B
:10184000C400C5014508003A0319272C602E44083E
:101850002A3A0319122C1A3A0319B22B013A031926
:10186000B22B033A0319B22B013A0319B22B073AF0
:101870000319B22B013A0319B22B033A0319B22B05
:10188000013A0319B22B0F3A0319B22B013A03198B
:10189000B22B602E8316031766080A128A11522093
:1018A0000A128A1583160317D10104305102031C52
:1018B0005A2C5B2C5C2C9B2CD20114305202031C42
:1018C000622C632C642C922C510883120313C400E5
:1018D0004408A80083160317520883120313C50097
:1018E0004508A9004430AA009230AB0083160317C4
:1018F00064080A128A1152200A128A150A308312C9
:101900000313A0000030A1000A128A1500200A1259
:101910008A15013083120313C40044088316031789
:10192000D2075D2C013083120313C40044088316D0
:101930000317D107552CD30104305302031CA12CEB
:10194000A22CA32CE22CD40114305402031CA92C89
:10195000AA2CAB2CD92C530883120313C4004408BF
:10196000A80083160317540883120313C500450803
:10197000A9003E30AA009130AB008316031764081B
:101980000A128A1152200A128A150A30831203138E
:10199000A0000030A1000A128A1500200A128A1540
:1019A000013083120313C400440883160317D407BD
:1019B000A42C013083120313C400440883160317B8
:1019C000D3079C2C83120313A801A80AA901943001
:1019D000AA009130AB008316031764080A128A111B
:1019E00052200A128A15023083120313C4004408DD
:1019F000A800A9015530AA009130AB008316031747
:101A000064080A128A1152200A128A1500308312C1
:101A10000313B0000030AF000330AE00E830AD007B
:101A20000A168A1585230A128A154E30831203136B
:101A3000C400440883160317E000602E0A168A15B6
:101A40007A230A128A15831203132308220421041D
:101A50002004031D2C2D2D2D602EC42A0230C4001D
:101A60004408A800A9011230AA009230AB008316E6
:101A7000031764080A128A1152200A128A150230CA
:101A800083120313C4004408AD000F30C50045089D
:101A9000AE00831603175F0883120313B00083168A
:101AA00003175E0883120313AF000330C600460815
:101AB000B1008316031765080A128A1152200A1210
:101AC0008A155B3083120313C4004408831603177E
:101AD000E000602E0A168A158D240A128A158312D8
:101AE0000313C400440883160317E1003030610279
:101AF000031C7B2D7C2DA72D3A3061020318812D0C
:101B0000822DA72DDE3083120313C4004408A600E3
:101B10008316031761080A168A15DA260A128A152F
:101B20000030831603175F02653003195E02031C41
:101B30009A2D9B2D9F2D6430DE000030DF005A303F
:101B400083120313C400440883160317E0002A30ED
:101B50006106031DAC2DAD2DBB2DDE300A168A1596
:101B60004D240A128A155A3083120313C400440804
:101B700083160317E00023306106031DC02DC12D1D
:101B8000602E5C3083120313C400440883160317CD
:101B9000E000602E831603175E080A168A153E259C
:101BA0000A128A15842A831603175A08831203130C
:101BB000A10083160317590883120313A0000A1605
:101BC0008A1559230A128A151E3083120313C40082
:101BD000440883160317E000A7298316031760083B
:101BE00083120313C400C5014508003A0319F92DF7
:101BF000602E4408003A0319D62F013A0319D02F5A
:101C0000033A0319E52F013A0319D92F053A0A12AD
:101C10008A110319922E0A128A15013A0319F72F15
:101C20000F3A0319E82F013A0319DC2F033A0A127D
:101C30008A110319CF2B0A128A15013A0319FA2FB8
:101C4000053A031965281E3A03195D280E3A03194F
:101C5000C328363A0319E029013A0319402A033A06
:101C600003197C2A1E3A03198F2A013A0319FC2A08
:101C7000033A0319D32D703A0319CC28013A0319FA
:101C8000FD2F0F3A0319EB2F013A0319DF2F033A07
:101C900003194F2B013A0319872B073A0319A52B78
:101CA000013A03194A2C033A03191E2D143A031959
:101CB0002E2D013A03196A2D073A0319CA2D602EF9
:101CC0000A168A11BC220A128A15A42F0A168A152E
:101CD00037230A128A150A168A1511230A128A1541
:101CE000023083120313C400440883160317D8007C
:101CF000ED2D0A168A150D230A128A150A168A1561
:101D000046230A128A1583120313C400440883165B
:101D10000317D6005C0303198E2E8F2E9A2E0330E4
:101D20005C060319942E952E9A2E5C08031D992E9D
:101D30009A2EED2D033083120313C400440883163A
:101D40000317D800ED2D83160317D61FA82EA92E32
:101D5000DE2E56087F3983120313C400C501C60165
:101D6000C7014708A3004608A2004508A10044088F
:101D7000A0000030A7000030A6000330A500E83026
:101D8000A4000A168A11B8230A128A1583120313B3
:101D90002308B0002208AF002108AE002008AD00E3
:101DA0000A168A1585230A128A1504308312031332
:101DB000C400440883160317D800ED2DDB308312CE
:101DC0000313C4004408A0008316031756080A1220
:101DD0008A1198270A128A15053083120313C4004A
:101DE000440883160317D800ED2D0A168A157A23A6
:101DF0000A128A15831203132308220421042004E3
:101E0000031D032F042FED2D063083120313C4008E
:101E1000440883160317D800ED2DD730C4004408BA
:101E2000A0008316031756080A168A119A240A126C
:101E30008A15003A03191D2F1E2FED2D042F033094
:101E4000831603175C06031D262F272F2F2F023022
:101E500083120313C400440883160317DC00073001
:101E600083120313C400440883160317D800ED2D12
:101E70000A128A11F3270A128A150A168A151423E0
:101E80000A128A1583120313C4000A168A150D2339
:101E90000A128A1583120313C50044084502031869
:101EA000522F532F5C2F023083120313C4004408B7
:101EB00083160317D800ED2D0A168A1522230A125D
:101EC0008A15083083120313C400440883160317CD
:101ED000D800ED2D831603175C080319702F712F9E
:101EE000A02F0A168A1530230A128A1583120313AB
:101EF0002008C4002108C5000A168A152F240A12DA
:101F00008A158312031321084502031D892F200817
:101F10004402031C8C2F8D2F9A2F0A168A152F240A
:101F20000A128A158312031320082104031D992F16
:101F30009A2FA02F0A168A1537230A128A15532FB3
:101F400083160317D801ED2D831603175808831243
:101F50000313C400C5014508003A0319B02FED2D45
:101F60004408003A0319ED2D013A0319662E033A8D
:101F70000319792E013A0319A32E073A0319F52EF6
:101F8000013A03190D2F033A03191F2F013A0319C0
:101F9000382F0F3A03196A2FED2D0A128A110C28D7
:101FA0000A128A115D2E0A128A11D3280A128A1186
:101FB000C82D0A128A11DB2A0A128A1105290A126F
:101FC0008A116B290A128A11652F0A128A11C228F6
:101FD0000A128A11DA280A128A114D290A128A1164
:101FE000582C0A128A114C2C0A128A11092C0A1236
:101FF0008A11562F0A128A11FA2B0A128A111B29EA
:1020000031343A34203449344E3453344534523424
:1020100049345234203453344534513455344534E2
:102020004E344334493441340A3432343A3420345F
:1020300042345534533443344134523420345334CD
:1020400045345134553445344E34433449344134A5
:102050000A3433343A34203452344534503445341D
:10206000543449345234203455344C3454342E349E
:10207000203453344534513455340A3434343A34EA
:10208000203443344F344E34463449344734553485
:102090005234413443344F344534533420342034A3
:1020A00020342034003420344534533443344F3406
:1020B0004C34483441342034413420344D34453498
:1020C0004D344F3452344934413420340A3451347D
:1020D00055344534203444344534533445344A343B
:1020E0004134203445345834453443345534543421
:1020F000413452340A3420343034203420342034F3
:10210000313420342034203432342034203420340C
:102110003334203420342034343420340A3420340E
:1021200035342034203420343634203420342034E4
:1021300037342034203420343834203420342034D0
:10214000393420340A340034203445345334433491
:102150004F344C34483441342034413420344D34ED
:1021600045344D344F345234493441340A342034E8
:102170005134553445342034443445345334453493
:102180004A3441342034533441344C34563441348D
:1021900052340A3420343034203420342034313462
:1021A000203420342034323420342034203433346A
:1021B00020342034203434340A342034353420346C
:1021C0002034203436342034203420343734203442
:1021D000203420343834203420342034393420342E
:1021E0002034003420342034203420344434453426
:1021F000533445344A3441342034533441344C341C
:102200005634413452340A342034203420342034BB
:102210002034533445345134553445344E344334EA
:102220004934413420343F340A340A3423342034CE
:102230002D342034533449344D3420342034203468
:102240002034203420342A3420342D3420344E34A9
:1022500041344F3400344334693463346C346F3464
:1022600073343A3420342034203420342034203461
:1022700020342034203420342034203420340034DE
:102280003C34203420342F34203420343E34203465
:1022900063343A3420342034203420342034203441
:1022A00020342034203420340034203420342034AE
:1022B00020342034203420342034533441344C34FE
:1022C0005634413420342034203420342034203417
:1022D000203400342034203420342034203420347E
:1022E0005334453447344734543454344934203417
:1022F000203420342034203420342034003420345E
:102300002034203420342034203420345B342034F2
:102310002034203420345D342034203420342034E0
:10232000203420342034003420342034203420342D
:1023300020342034533445345134553445344E34EC
:102340004334493441342034203420342034203480
:1023500000342034203420342034203444344F34AA
:102360002034533449345334543445344D34413497
:1023700020342034203420342034003420342034DD
:10238000203441342034203420344234203420346A
:102390002034433420342034203444342034203456
:1023A00020342034003420342034203441344A3462
:1023B000553453345434453420344F342034493464
:1023C0004E344934433449344F34203420340034BB
:1023D0002034203449344E34533449345234413457
:1023E00020344F3453342034503441345334533434
:1023F0004F345334203420340034303420342D34DE
:1024000020344334693463346C346F34203463349F
:102410006F346E34743469346E3475346F342034F0
:102420002034003463346F346E3466346934673476
:10243000203463346F346E34743472346C343A3410
:1024400020342034203420342034253400346334C4
:102450006F346E34663469346734203474346534D0
:102460006D3470346F343A342034203420342034C6
:1024700020342034733400343C34203420342F345E
:10248000203420343E340034FF34003464008001B2
:10249000840A0406031900340406472A831203132E
:1024A000A2006E2A7A1C552A572A7A14582A7A10C2
:1024B000842AFA1C5C2A5E2AFA145F2AFA10842AFB
:1024C0007A1D632A652A7A15662A7A11842AFA1DEA
:1024D0006A2A6C2AFA156D2AFA11842A2208A000A9
:1024E000A1012108003A0319762A842A2008413ADA
:1024F0000319522A033A0319592A013A0319602A87
:10250000073A0319672A842A080083120313A300D9
:102510002308A2002208D3002008A2002208D2002B
:102520002108A2002208D100851183160317881103
:1025300083160313851183120313051183160317E2
:102540000811831603130511831203130510831654
:1025500003170810831603130510831203130508CD
:10256000831603178810831603138514831203132D
:102570000511051085150800831203135108FF3E4D
:10258000A4002408A8000A168A151D230A168A1119
:1025900083120313A901EB2A5208A4002908A402FC
:1025A00028082407A50025088400831700080A16B8
:1025B0008A1588250A168A1183120313A600290892
:1025C0005307A700270884002608831780000130DE
:1025D000A4002408A90751082902031CF02AF12AA3
:1025E000CC2A0A168A151D230A168A11080083129E
:1025F00003132908AC002C08AD002908AC002C08F6
:10260000A30028080A168A156A270A168A11222B9F
:102610002B08FF002A0884000A168A1500200A16D3
:102620008A110A168A1539270A168A11013083126F
:102630000313AA070318AB0A0030AB070130AC0044
:102640002C08AD07831203132B08FF002A0884000F
:102650000A168A1500200A168A11003A031D312B2A
:10266000322B082B080083120313AB01A3010030A7
:102670000A168A156A270A168A115E2B0A302C065A
:102680000319432B442B4B2B2C080A168A15392788
:102690000A168A11562BA3010130AA002A08AB079B
:1026A0002B080A168A156A270A168A110130831226
:1026B0000313A8070318A90A0030A90783120313FC
:1026C0002908FF00280884000A168A1500200A1627
:1026D0008A11AA002A08AC002C08031D702B712B4C
:1026E0003E2B080083120313A601A7012008210432
:1026F00003197B2B7C2BB32BA501A50A8A2B013058
:102700000310A00DA10DFF3E031D802B0130A4007E
:102710002408A507A11F8D2B8E2B7F2B01300310C2
:10272000A60DA70DFF3E031D8F2B21082302031DBD
:102730009B2B20082202031C9E2B9F2BA62B2008DC
:10274000A2022108031CA303A302261401300310D4
:10275000A10CA00CFF3E031DA72B0130A502031DF9
:10276000B22BB32B8E2B2708A1002608A00008004F
:10277000003083120313AC000030AB000030AA001D
:102780000030A900201CC52BC62BDD2B2408A9076F
:10279000250803110318013E0319CF2BAA072608A9
:1027A00003110318013E0319D62BAB0727080311A9
:1027B0000318013E0319DD2BAC070130A8000310FC
:1027C000A40DA50DA60DA70DA80BDF2B013003103E
:1027D000A30CA20CA10CA00CFF3E031DE72B2308A9
:1027E000220421042004031DF62BF72BC22B2C08F6
:1027F000A3002B08A2002A08A1002908A0000800B5
:1028000083120313A401A50104302502031C092C23
:102810000A2C0B2C4A2C0130A000250A112C031085
:10282000A00DFF3E031D0F2C20088800A6011030CC
:10283000A000260A1D2C0310A00DFF3E031D1B2C1B
:10284000200808050319252C262C3B2C2508A00060
:1028500002300310A00DFF3E031D292CB4302007C9
:10286000A10026082107A200220884008313000883
:10287000A3002308A4000130A0002008A60704300C
:102880002602031C442C452C172C0130A0002008E4
:10289000A507042C2408080083120313B00167085D
:1028A000FF3EAD002D08B200023032020318592C51
:1028B0005A2C5B2C992C3208543E84008313000858
:1028C000AD002D08B100B11F662C672C7B2C3108A0
:1028D0007F39AD00AE012D08A9002E08AA000A1606
:1028E0008A15AE240A168A11013E83120313AF0023
:1028F0002F08B0078B2C41303102031C802C812C17
:102900008B2C7B3031020318862C872C8B2C0230C9
:10291000AD002D08B00715303002031C902C912C0F
:10292000922C992C3208AD002D08E6000130B2023D
:10293000542C080083120313A300D02C2008840019
:10294000831700080239F22C20088400831700083E
:102950000139F22C20088400831700080839F22C72
:1029600020088400831700080439F22C2008840012
:10297000831700082039F22C2008840083170008F0
:102980001039F22C20088400831700088039F22CBB
:1029900020088400831700084039F22C0030F22C04
:1029A0002308A100A2012208003A0319D82CCE2C3A
:1029B0002108413A03199E2C033A0319AA2C013A23
:1029C0000319B62C073A0319C22C253A0319A42C73
:1029D000033A0319B02C013A0319BC2C073A031926
:1029E000C82CCE2C0800003083120313A70000303F
:1029F000A6000030A5000030A40041300A168A1558
:102A0000AC260A168A1183120313A3002308A4001C
:102A100042300A168A15AC260A168A11831203134D
:102A2000A3002308A50043300A168A15AC260A160F
:102A30008A1183120313A3002308A60044300A1648
:102A40008A15AC260A168A1183120313A3002308E1
:102A5000A7002430A3002308A800A9010830A30080
:102A60002308AA00462D28088400831300080319B0
:102A70003A2D3B2D402D29082A04A3002308A90044
:102A80000130A3002308A8070310AA0C2A08031D7D
:102A90004A2D4B2D332D2908080083120313A6015C
:102AA000A31F532D542D5B2DA209A309A20A0319BC
:102AB000A30AA601A60AA11F5E2D5F2D642DA00901
:102AC000A109A00A0319A10A200821040319692DEC
:102AD0006A2D992DA501A50A782D01300310A00DAE
:102AE000A10DFF3E031D6E2D0130A4002408A50793
:102AF000A11F7B2D7C2D6D2D21082302031D822D0E
:102B000020082202031C852D862D8C2D2008A20270
:102B10002108031CA303A30201300310A10CA00C85
:102B2000FF3E031D8D2D0130A502031D982D992D0B
:102B30007C2D260803199D2D9E2DA32DA209A309E6
:102B4000A20A0319A30A2308A1002208A000080072
:102B500083120313A601A11FAE2DAF2DB62DA00920
:102B6000A109A00A0319A10AA601A60AA31FB92D4B
:102B7000BA2DC32DA209A309A20A0319A30A013081
:102B8000A4002408A606A701A8012008210403190F
:102B9000CA2DCB2D022EA501A50AD92D0130031077
:102BA000A00DA10DFF3E031DCF2D0130A400240870
:102BB000A507A11FDC2DDD2DCE2D01300310A70DA3
:102BC000A80DFF3E031DDE2D21082302031DEA2D63
:102BD00020082202031CED2DEE2DF52D2008A20267
:102BE0002108031CA303A302271401300310A10C26
:102BF000A00CFF3E031DF62D0130A502031D012E82
:102C0000022EDD2D26080319062E072E0C2EA709ED
:102C1000A809A70A0319A80A2808A1002708A000E4
:102C2000080083120313A20006122208A000043039
:102C30000310A00CFF3E031D182E06082006F039D5
:102C400020068600861222030319272E282E2E2EF8
:102C500002302206031D2D2E2E2E392E0D3083120A
:102C60000313A100FB30A000A00B342EA10B342EC7
:102C7000402E413083120313A000A00B3D2E402EA6
:102C8000831203138616F0302205A00020302006A0
:102C9000031D4B2E4C2E652E06122208A000043078
:102CA0000310A00CFF3E031D502E06082006F0392D
:102CB000200686008612413083120313A000A00B69
:102CC0005F2E622E83120313861606120F30220522
:102CD000A00006082006F03920068600861222038E
:102CE0000319732E742E7A2E02302206031D792EBC
:102CF0007A2E852E0D3083120313A100FB30A00025
:102D0000A00B802EA10B802E8C2E4130831203133A
:102D1000A000A00B892E8C2E8312031386160800A8
:102D200083120313C20039080A168A15DD230A1616
:102D30008A1183120313BA003A08C300C31FA12EDD
:102D4000A22EE62E7F30BA003A08C3054308BA0027
:102D5000BB013A08A9003B08AA000A168A15AE244E
:102D60000A168A11033A031DB62EB72EBB2E013068
:102D700083120313C20283120313AD014208BA0087
:102D80003A08AE004308BB00BC013B08AF003C085A
:102D9000B0004308BD00BE013D08A9003E08AA00DE
:102DA0000A168A15AE240A168A1183120313BF006D
:102DB0003F08B1000A168A111B270A168A117330C0
:102DC0000A168A1539270A168A111A2F413043022A
:102DD000031CEB2EEC2E1A2F7B3043020318F12E2E
:102DE000F22E1A2F4208BA003A08A30000300A1641
:102DF0008A156A270A168A11831203134308DF39DA
:102E00000A168A1539270A168A1183120313C31A60
:102E10000A2F0B2F102F2B30C0000030C100142FB1
:102E20002D30C0000030C10040080A168A1539272D
:102E30000A168A11080083120313B01B202F222FB9
:102E40000130232F0030B2003208B60036080319D3
:102E50002A2F2B2F302FAF09B009AF0A0319B00A60
:102E60002E08B2003208A3002D080A168A156A2718
:102E70000A168A11103083120313B7002730B800E6
:102E80000530B2003208B500712F831203133808E1
:102E9000A1003708A0003008A3002F08A2000A16DE
:102EA0008A11A8250A168A11831203132008210407
:102EB000031D5B2F5C2F892F0130B5020A30A00063
:102EC0000030A1003808A3003708A2000A168A11B2
:102ED000A8250A168A11831203132108B8002008B6
:102EE000B7003808803AFF0080307F02031D7A2F38
:102EF0000130370203187D2F7E2F452F892F203078
:102F00000A168A1539270A168A110130831203130B
:102F1000B1028312031335083607B200B301B30DB3
:102F20003308803AB40080303402031D992F3108F1
:102F3000320203189C2F9D2FA52F023083120313FA
:102F400031020318A42FA52F7F2F831203133608F5
:102F50000319AB2FAC2FB22F2D300A168A15392743
:102F60000A168A11831203133808A1003708A0003B
:102F70003008A3002F08A2000A168A11A8250A16F5
:102F80008A11831203132008303E0A168A15392746
:102F90000A168A11831203133808A1003708A0000B
:102FA0003008A3002F08A2000A168A114D250A1620
:102FB0008A11831203132108B0002008AF000A30E1
:102FC000A0000030A1003808A3003708A2000A16AC
:102FD0008A11A8250A168A11831203132108B80042
:102FE0002008B7003808803AFF0080307F02031DB8
:102FF000FB2F013037020318FE2FFF2FB22F0800DE
:10300000FF1B0A2883137F1883170008840A0319FB
:10301000FF0A08007F087F398A000408840A031920
:04302000FF0A820021
:1036120054300800123008007B08080002340234DB
:10362200F601F701080083120313670808007A10F5
:10363200FA107A11FA110800831203138511851505
:1036420008000130F6070318F70A0030F7070800F0
:1036520001300A168A1111260A168A1508007708FF
:1036620083120313A1007608A0000800023083121F
:103672000313A0002008FB00080083120313880133
:10368200F030831603138800080083120313A0008E
:103692002008543E84008313000808000D341034BF
:1036A200073413340A341634013404340034003439
:1036B200831203132008A2002208D4002108A200CA
:1036C2002208D50008001230831203136702031C7C
:1036D2006B2B6D2B01306E2B0030080003308312F0
:1036E20003136602031C762B772B792B0130E6023B
:1036F2000800831203134B08A3004A08A2004908DA
:10370200A1004808A0000800831203133008CB0070
:103712002F08CA002E08C9002D08C800101408007E
:10372200831203139010303090041015FD308F0077
:103732008F308E001013831603130C140B178B1784
:1037420008007E088A007F0882000A168A15A223D2
:103752000A168A158000840A04087D0603190034BB
:10376200FF0A0319FE0AA62B83120313A000831279
:1037720003178F01831203132008831203178D008E
:10378200831603178C130C14831203170C080800FA
:10379200831203132108A3002008A200A20EA30E85
:1037A200F030A30522080F39A304F030A205220845
:1037B200A0002308A100080083120313A2000A1626
:1037C2008A150D230A168A158312031322070A1675
:1037D2008A1546230A168A1583120313A1002108AB
:1037E200A300230808008B13831203130C1CFA2B6B
:1037F200FB2B092C831603130C1C002C012C092C07
:10380200831203130C100A168A1551260A168A15FA
:103812008B1775088A00740E8300FE0E7E0E090057
:1038220083120313A1008B132108831203178D0047
:10383200831203132008831203178C0083160317C5
:103842008C130C1555308D00AA308D008C148C18F9
:103852002B2C2C2C282C0C118B17080083120313F1
:103862005508A200A3012208A4002308A5000830DD
:103872000310A40DA50DFF3E031D392C5408A20010
:10388200A3012208A4070318A50A2308A5072508EF
:10389200A1002408A000080083120313A8000A3024
:1038A200A0000030A1002808840083170008A200AD
:1038B200840A0008A3000A168A1172230A168A15BE
:1038C2008312031328088400200883178000840AC7
:1038D20021088000080083120313AB002B08A90003
:1038E200AA012908A0002A08A1000A168A15C923DC
:1038F2000A168A15831203132108AD002008AC00B2
:103902002808A9002908A0002C0827070A168A15EA
:1039120011240A168A15080083120313A8010A1635
:103922008A1100240A168A1583120313A700270896
:10393200A900290803199E2C9F2CA82C5008031DAE
:10394200A32CA42CA82C2908A7002708A800290822
:10395200A7002708D0002808080083120313AC012F
:10396200C92C0A30A0000030A1002A08A3002908AF
:10397200A2000A168A11A8250A168A1583120313B1
:103982002108AA002008A9000130AB002B08AC07CF
:1039920029082A04031DCE2CCF2CB22C2C08080097
:1039A20083120313B400123067020318D92CDA2CE5
:1039B200EF2C34080319DE2CDF2CEF2C3408B30073
:1039C2006708543E84003308831380000130B3003B
:1039D2003308E7076708543E840080010A168A11FB
:1039E2004C240A168A1508004D3475346E3464343A
:1039F2006F34203461346F34203473346534753459
:103A0200203463346F346D3461346E3464346F3413
:103A1200313432343334413434343534363442344C
:103A220037343834393443342A3430342334443448
:103A320083120313AB002B08A900AA012908A000D6
:103A42002A08A1000A168A15C9230A168A158312A2
:103A520003132108AD002008AC002C0827070A1622
:103A62008A15B5230A168A1583120313A90028089A
:103A72008400290883178000080083120313B4000E
:103A8200123067020318462D472D5D2D34080319A5
:103A92004B2D4C2D5D2D34088038B3006708543E01
:103AA20084003308831380000130B3003308E70732
:103AB2006708543E840080010A168A114C240A16B3
:103AC2008A15080083120313B40012306702031828
:103AD2006B2D6C2D822D34080319702D712D822DC2
:103AE20034088038B3006708543E840033088313D7
:103AF20080000130B3003308E7076708543E8400B2
:103B020080010A168A114C240A168A1508008312AB
:103B12000313A1008030A0002008A300A201A62D5B
:103B22000511210823050319972D982D9A2D0514A7
:103B32009B2D0510851C9E2D9F2DA32D2308A000D3
:103B42002008A20405150310A30C2308031DAA2DA7
:103B5200AB2D912D05112208080083120313A40135
:103B6200A501201CB52DB62DBC2D2208A4070318D3
:103B7200A50A2308A50701300310A20DA30DFF3EDD
:103B8200031DBD2D01300310A10CA00CFF3E031D2F
:103B9200C42D20082104031DCF2DD02DB22D2508C0
:103BA200A1002408A0000800831203136708031968
:103BB200DB2DDC2DF62D03306702031CE12DE22DF7
:103BC200E42D0130E7026708543E840083130008A5
:103BD200DF390A168A114E220A168A158312031336
:103BE2006708543E8400831380010A168A114C240C
:103BF2000A168A150800831203132708A800A901D0
:103C02002808A0002908A1000A168A15C9230A1645
:103C12008A15831203132108AB002008AA00AC0105
:103C2200A0012A082C070A168A1511240A168A15D9
:103C3200013083120313A8002808AC0710302C02AD
:103C4200031C242E252E112E080083120313A50017
:103C52000830A3002308A6004130A3002308A400D3
:103C6200250A031D352E362E4B2E502E25082605ED
:103C720003193C2E3D2E432E24080A168A114E2289
:103C82000A168A15013083120313A3002308A4071E
:103C92000310A60C2608031D4F2E502E372E0800A7
:103CA200FD30831203138F008F308E004B084A04BD
:103CB2004904480403195E2E5F2E7C2E0130F00069
:103CC2000030F1000030F2000030F3007008C8024A
:103CD2007108031C710F6E2E6F2EC9027208031C2D
:103CE200720F742E752ECA027308031C730F7A2E7C
:103CF2007B2ECB027D2E101008001130831203138D
:103D020066020318852E862EA72E6708FF3EA000A6
:103D1200FF3003180030A1002108803A803C031DC7
:103D2200942E200866020318972E982E9F2E01309B
:103D320083120313A0002008E607AB2E831203139D
:103D42006708FF3EA0002008E600AB2E1130A0005D
:103D52002008E600080083120313A200C32E7A088B
:103D62000139D92E7A0C0139D92E7A0CA000200CF7
:103D72000139D92E7A0CA000A00C200C0139D92EC1
:103D82000030D92E2208A000A1012108003A03190F
:103D9200CB2EC12E2008413A0319B02E033A031943
:103DA200B32E013A0319B62E073A0319BB2EC12EC0
:103DB200080083120313AB0026088400831700084F
:103DC200A000840A0008A1000A30A2000030A3006B
:103DD2000A168A15AE250A168A15831203132B08B2
:103DE2002007A7000030031801302107A800270888
:103DF200D03EA90028080318013EFF3EAA0026086B
:103E02008400290883178000840A2A088000080099
:103E120083160317890183160313061286120610EE
:103E22008610061186118312031386160530A00030
:103E32000030A1000A128A1500200A168A152830BD
:103E42000A168A1111260A168A150C300A168A11C8
:103E520011260A168A1501300A168A1111260A1627
:103E62008A1502300A168A1111260A168A150800C6
:103E720083120313A10006162108A00004300310C8
:103E8200A00CFF3E031D402F06082006F039200635
:103E920086008612413083120313A000A00B4F2F1D
:103EA200522F83120313861606160F302105A00027
:103EB20006082006F0392006860086124130831259
:103EC2000313A000A00B632F662F83120313861621
:103ED200080083120313A600A7017E2F4030A4001E
:103EE2002408A700912F1430A4002408A700912FC2
:103EF2005430A4002408A700912F2608A400A5018D
:103F02002508003A0319862F912F2408013A031934
:103F12006F2F033A0319742F013A0319792F912F46
:103F2200230827077F39803E0A168A1111260A16AE
:103F32008A150800831203132708A900AA01290879
:103F4200A0002A08A1000A168A15C9230A168A1592
:103F5200831203132108AC002008AB00AD012B082B
:103F62002D070A168A15B5230A168A15831203131A
:103F7200A9002D082807AA002A0884002908831707
:103F820080000130A9002908AD0710302D02031C62
:103F9200CB2FCC2FB02F0800831203132708A900C0
:103FA200AA012908A0002A08A1000A168A15C92315
:103FB2000A168A15831203132108AC002008AB00ED
:103FC200AD012D082807A9002908840083130008E1
:103FD200AA002A08A0002B082D070A168A15112408
:103FE2000A168A15013083120313A9002908AD07A6
:0E3FF20010302D02031CFE2FFF2FE22F0800BF
:04400E00C220FF3F8E
:00000001FF
